:020000040800F2
:1000000060420020D10200089F1F0008D519000897
:100010009D1F0008C90500084D26000800000000CB
:100020000000000000000000000000000D020008B9
:10003000CB0500080000000069020008A91F0008A5
:10004000EB020008EB020008EB020008EB020008DC
:10005000EB020008EB020008EB020008EB020008CC
:10006000EB020008EB020008EB020008EB020008BC
:10007000EB020008EB020008EB020008EB020008AC
:10008000EB020008EB020008EB020008EB0200089C
:10009000EB020008EB020008EB020008EB0200088C
:1000A000EB020008EB020008EB020008EB0200087C
:1000B000EB020008EB020008EB020008EB0200086C
:1000C000EB020008EB020008EB020008EB0200085C
:1000D000EB020008EB020008EB02000841260008D2
:1000E000EB020008EB020008EB020008EB0200083C
:1000F000EB020008EB020008EB020008EB0200082C
:10010000EB020008EB020008EB020008EB0200081B
:10011000EB020008EB020008C9200008EB0200080F
:10012000EB020008EB020008EB020008EB020008FB
:10013000EB020008EB020008EB020008EB020008EB
:10014000EB020008EB020008EB020008EB020008DB
:10015000EB020008EB020008EB020008EB020008CB
:10016000EB020008EB020008EB020008EB020008BB
:10017000EB020008EB020008EB02000800000000A0
:10018000EB020008EB020008EB020008EB0200089B
:10019000EB020008EB020008EB020008EB0200088B
:1001A000EB020008EB020008EB020008EB0200087B
:1001B000EB020008EB020008EB020008EB0200086B
:1001C000EB020008EB02000800000000EB02000850
:1001D000EB020008EB020008EB020008EB0200084B
:1001E000EB020008EB020008EB020008EB0200083B
:1001F000EB020008EB020008DFF80CD000F020F959
:100200000048004719280008604200202D4B19685B
:100210000868B0E8F04F80F30988BFF36F8F4FF0A4
:10022000000080F311887047000000000848006853
:10023000006880F308884FF0000080F3148862B6ED
:1002400061B6BFF34F8FBFF36F8F00DF00BF00BFFA
:1002500008ED00E0DFF80C00016841F47001016076
:10026000704700BF88ED00E0EFF30980BFF36F8FA8
:10027000144B1A681EF0100F08BF20ED108A20E9F9
:10028000F04F106009B44FF0500072B680F311883F
:10029000BFF34F8FBFF36F8F62B603F009F94FF0D2
:1002A000000080F3118809BC19680868B0E8F04FB5
:1002B0001EF0100F08BFB0EC108A80F30988BFF35E
:1002C0006F8F704750000020EFF3058070470000EB
:1002D0000648804706480047FEE7FEE7FEE7FEE7E0
:1002E000FEE7FEE7FEE7FEE7FEE7FEE77520000813
:1002F000F90100082DE9F05F0546002092469B4673
:1003000088460646814640241BE02846414647462B
:10031000224600F085F853465A46C01A914110D340
:1003200011461846224600F06CF82D1A67EB0108BA
:100330004F4622460120002100F063F817EB000928
:100340004E41201EA4F10104DFDC484631462A4616
:100350004346BDE8F09F40EA01039B0703D009E054
:1003600008C9121F08C0042AFAD203E011F8013BA1
:1003700000F8013B521EF9D27047D2B201E000F8FA
:10038000012B491EFBD270470022F6E710B5134639
:100390000A4604461946FFF7F0FF204610BD421EEC
:1003A00012F8013F002BFBD111F8013B02F8013B91
:1003B000002BF9D17047421C10F8011B0029FBD11A
:1003C000801A7047034611F8012B00F8012B002A10
:1003D000F9D11846704730B50B460146002020225F
:1003E000012409E021FA02F59D4205D303FA02F542
:1003F000491B04FA02F52844151EA2F10102F1DCA2
:1004000030BD202A04DB203A00FA02F100207047B8
:100410009140C2F1200320FA03F319439040704742
:10042000202A04DB203A21FA02F00021704721FA49
:1004300002F3D040C2F120029140084319467047B0
:10044000064C074D06E0E06840F0010394E8070021
:1004500098471034AC42F6D3FFF7D2FE183F00089D
:10046000383F0008A8B02F4C00231A461946E0690F
:1004700003F042F904F130064FF0FF354FF4FA670C
:10048000E069294603F046FA27A16846FFF79AFF7C
:10049000E06902F02EFE31A1024627A802F0D8F84A
:1004A0002FA16846FFF77BFF27A96846FFF777FF74
:1004B00030A16846FFF773FF6846FFF77CFF82B202
:1004C0002D482B46694601F029FA606823A156F8A9
:1004D000202026A802F0BCF828A16846FFF772FF8A
:1004E00026A96846FFF75BFF2EA16846FFF757FF76
:1004F0006846FFF760FF82B21F482B46694601F04D
:100500000DFA6068401C6060022801DD0020606018
:100510000023E0691A46194603F0EEF8384602F067
:10052000DBFEADE700000020456E74657265642057
:10053000414443205461736B0A2041626F756E74AD
:1005400020746F20414351554952452074686520FD
:1005500053656D6170686F72650A0A00256400005A
:10056000546F6B656E7320617661696C61626C6556
:10057000200000000A0A0000B00000204C656176EF
:10058000696E6720414443205461736B0A204461C3
:1005900074612041434345535345442069733A3ABB
:1005A000200000000A204E6F742072656C65617334
:1005B000696E67207468652053656D6170686F723D
:1005C000650A0A0A00000000FEE77047704790F8CD
:1005D0003510022903D08021416501207047052193
:1005E00080F835100068016821F0010101600020E9
:1005F000704700002DE9F84FDFF89CE100224FF032
:1006000001084FF0030B4FF00F0A00BF0B6808FA08
:1006100002F42340A34271D14D68022D01D0122D66
:100620000FD1D5080E69570700EB8505A9462D6A3D
:10063000FF0E0AFA07FCBE4025EA0C052E43C9F856
:1006400020600F79550006680BFA05FC07F00307D8
:1006500026EA0C06AF40374307604E68012E05D0EE
:10066000022E03D0112E01D0122E0ED18668CF6833
:1006700026EA0C06AF403743876046680F79A643E9
:10068000C7F30017974037434760C4688E6824EA71
:100690000C04AE402643C6604C68E40075D53F4C60
:1006A000256845F480452560246822F003069507F7
:1006B00004F4804400943A4C2D0F2644D6F80848A0
:1006C000DFF8E0C00AFA05F7604524EA070401D123
:1006D00000272EE0344FB84201D1012729E0334FE3
:1006E000B84201D1022724E0314FB84201D103279B
:1006F0001FE0304FB84202D104271AE045E02E4FE8
:10070000B84201D1052714E02C4FB84201D1062789
:100710000FE02B4FB84201D107270AE0294FB8421A
:1007200001D1082705E0284FB84201D1092700E090
:100730000A27AF4027437546C6F808784E68DEF8AA
:100740000040F60324EA030400D51C43124E2C603B
:10075000361D4D683468AD0324EA030400D51C43FC
:100760000D4F346008374D683C68ED0224EA0304FD
:1007700000D51C43084D3C600C354E682C68B60211
:1007800024EA030400D51C432C60521C102AFFF4F9
:100790003DAFBDE8F88F0000003C01404438024006
:1007A0000030014000000240000402400008024006
:1007B000000C0240001002400014024000180240E9
:1007C000001C0240002002400024024001488068D2
:1007D0007047000040000020024881680278114400
:1007E0008160704740000020032010B500F08CF8B5
:1007F000002000F005F800F03DF8002010BD0000DA
:1008000010B500220146362088B000F05DF8362091
:1008100000F04CF81348016841F0100101600068D5
:1008200005A900F010000690684600F0E9FB00F012
:1008300007FC0D49400000220C4CB0FBF1F10C48C4
:1008400040F2E7330460C0E90332491EC0E90112F7
:1008500000F0E7FD10B1012008B010BD044800F021
:10086000FDFDF9E74038024040420F000010004013
:10087000300100200C4882B0016841F080510160D5
:10088000006800F0805000900748001D016841F4A6
:1008900080410160006800220F2100F48040009038
:1008A000901E02B000F010B840380240002809DB6A
:1008B000410900F01F028900012001F1E021904070
:1008C000C1F80001704700000E4BF0B41B680D46E4
:1008D000C3F30223C3F10706042E00D90426191D11
:1008E000072901D2002300E0DB1E012404FA06F1EF
:1008F0009C40491E2940641E994014402143F0BC8D
:1009000001F0BABE0CED00E0064900F0070210B598
:100910004FF6FF040868044B204040EA02201843C9
:10092000086010BD0CED00E00000FA051848F8B5AD
:10093000016841F0805101600068164C00F0805061
:100940000090206840F480302060FFF73FFF4FF4B4
:100950007A76054605E000BFFFF738FF401BB0423E
:100960000FD86068C003F7D5206840F400302060DD
:10097000FFF72CFF054606E0FFF728FF401BB042BB
:1009800001D90320F8BD60688003F5D50020F8BDCB
:1009900040380240007000402DE9F84F04460078CE
:1009A000DFF824944FF000063746C0070ED0D9F880
:1009B000001021F40001C9F80010D9F80010626B92
:1009C0001143C9F80010606B00B90126FE4D206884
:1009D000843500030ED5E16B286820F440100843ED
:1009E0002860E06BB0F5801F01D010B102E0012655
:1009F00000E0012720684FF4800BC0020CD5216C69
:100A0000286820F4400008432860206C584501D134
:100A1000012601E000B901272068C10100D50126A7
:100A2000800666D5E8483830016841F080510160A1
:100A30000068DFF898A300F080500090DAF800100A
:100A400041F48071CAF80010FFF7C0FE804605E04F
:100A5000FFF7BCFEA0EB080064287DD8DAF80000A0
:100A6000C005F5D5DFF8608308F16808D8F8000004
:100A700010F440702AD0218E01F44071814225D0BB
:100A8000D8F80010D8F8002021F4407142F48032E8
:100A9000C8F80020D8F8002022F48032C8F80020DE
:100AA000C8F80010D8F80000C0070FD0FFF78EFE7E
:100AB000824607E0FFF78AFEA0EB0A0141F2883088
:100AC0008142CAD8D8F800008007F3D5206BC0F364
:100AD000012103297ED0D9F8001021F4F811C9F8BA
:100AE0000010228ED8F80010C2F30B021143C8F890
:100AF00000102078C00607D5286820F08070286094
:100B00002868A16B084328602188AF4888304904D1
:100B100005D5626E016821F44031114301602188DE
:100B2000090405D5A26E016821F44021114301603A
:100B30002168C90305D5E26E016821F44011114313
:100B400001602168890305D5226F016821F4400105
:100B500011430160217800E034E1490605D5626C5B
:100B6000016821F00301114301602178090605D5D0
:100B7000A26C016821F00C01114301602188C905B4
:100B800005D5E26C016821F0300111430160218834
:100B9000890505D5226D016821F0C001114301606E
:100BA0002188490505D5626D016821F44071114322
:100BB00001602188090505D5A26D016821F4406115
:100BC000114301602188C90407D5E26D016821F451
:100BD000405100E05FE0114301602188890405D5A0
:100BE000226E016821F440411143016021684902ED
:100BF00005D5A26F016821F0806111430160216871
:100C00004FF0006A890209D5E26F016821F00061A6
:100C100011430160E16F514500D1012721680A07A6
:100C200000D50127490305D5626F016821F04071A5
:100C3000114301602168090206D5D4F880200168BB
:100C400021F08051114301602168490106D5D4F893
:100C50008420016821F000511143016020680001E7
:100C600006D5D4F88810286820F000700843286062
:100C70002068C00006D5D4F88C10286820F0806069
:100C800008432860DFF84891012E0ED02068B0F1AB
:100C9000007F0AD08FE04F4AD9F80030104023F48B
:100CA000F8120243C9F800201BE7D9F800004E46AD
:100CB00020F08060C9F80000FFF788FD804605E05D
:100CC000FFF784FDA0EB080064287BD830680001A2
:100CD000F6D421783C487C30C90712D0616B81B9C9
:100CE000237A62680168D0F800C09201C1F3014123
:100CF00042EA0142CCF3036142EA016141EA037135
:100D0000016021680A0303D5E26BB2F5801F04D0AD
:100D1000C9021AD5216C594517D16368016894F846
:100D20000CC002689B01C1F3014143EA0141C2F3D7
:100D3000027241EA0C6141EA027101602968626A4B
:100D400021F01F01521E114329602168C90110D5ED
:100D5000238A62680168D0F800C09201C1F3036180
:100D600042EA034242EA0162CCF3027142EA0171B3
:100D70000160216889010CD56168228A237B94F87F
:100D800008C0890141EA024141EA036141EA0C716C
:100D900001603168B04641F080613160FFF716FDB7
:100DA000064604E0FFF712FD801B64280AD8D8F835
:100DB00000000001F6D5E7B3D9F800004E4620F058
:100DC000805009E07BE000000838024000700040DD
:100DD00000380240FFFCFF0FC9F80000FFF7F6FCE7
:100DE000074604E0FFF7F2FCC01B642867D83068B0
:100DF000C0438000F6D5216835480A0301D5E26B6F
:100E00001AB1C9021DD5216CD9B963690168277E61
:100E100002689B01C1F3014143EA0143C2F302713D
:100E200043EA076242EA0171016029686FF0FF033B
:100E300000E04BE0A26A21F4F85103EB02221143D7
:100E400029602168890212D5E16F51450FD1238CA9
:100E50006269016807689201C1F3036142EA0342D3
:100E600042EA0162C7F3027142EA0171016021782E
:100E7000090716D561690268D0F800C08B01277F89
:100E8000C2F30362CCF3014143EA014141EA02614A
:100E900041EA077101602868E16A20F440300843A4
:100EA0002860306840F080503060FFF78FFC0446C7
:100EB00008E000BFFFF78AFC001B642802D903206A
:100EC000BDE8F88F3068C0438000F3D40020F7E716
:100ED000883802402DE9F04705000F4663D0444EA4
:100EE000306800F00F00B84209D2306820F00F00DF
:100EF00038433060306800F00F00B84253D12868A2
:100F00003C4C810712D5400703D5206840F4E050DF
:100F100020602878000703D5206840F460402060F6
:100F2000A968206820F0F000084320602878C007F6
:100F30002AD0304968680839012810D00968022889
:100F400010D0890700292EDA216821F0030101431E
:100F50002160FFF73BFC804641F288390DE00968CB
:100F60008903EFE78901EDE7FFF730FCA0EB08010B
:100F7000494502D90320BDE8F0876868216801F07F
:100F80000C01B1EB800FEFD1306800F00F00B842D8
:100F90000BD9306820F00F0038433060306800F023
:100FA0000F00B84201D00120E5E72878400705D5B9
:100FB000E968206820F4E0500843206028780007A2
:100FC00006D52869216821F4604141EAC00020600B
:100FD00000F056F82168084AC1F30311515CC8407B
:100FE000064908600020FFF70BFC0020C3E7000063
:100FF000003C024008380240F43E00084C0000204B
:101000000D4A0F2330B503604FF4E0540B4B1568C5
:1010100005F003054560156805F0F0058560156865
:1010200005F4E055C560126804EAD202026118684E
:1010300000F00F00086030BD08380240003C02405C
:101040000449054809680068044AC1F38221515CDB
:10105000C8407047083802404C000020043F000898
:101060000449054809680068044AC1F34231515CEB
:10107000C8407047083802404C000020043F000878
:10108000154910B51548096811F00C0213D041102C
:10109000042A0FD0082A0ED10F4C241F226823687F
:1010A00002F03F025B0207D52068C0F38810A0FB66
:1010B000010106E0084610BD2168C1F38811A1FBBB
:1010C00000010023FFF716F92168C1F30141491C13
:1010D0004900B0FBF1F010BD083802400024F400D4
:1010E0002DE9F84F05004FF000076ED02878DFF8A3
:1010F0002093A9F1040AC007AAF104044CD0D9F83E
:1011000000104846C1F38101012908D00068C0F3EE
:10111000810002280AD1DAF80000400206D52068D2
:10112000800339D568680028DFD035E06868B0F5FD
:10113000803F0BD010B1B0F5A02F11D0206820F463
:1011400080302060206820F4802002E0206840F495
:1011500080302060686890B1FFF738FB06460AE0EF
:10116000206840F480202060F0E700BFFFF72EFBEE
:10117000801B642872D820688003F7D50CE0FFF745
:1011800025FB064605E000BFFFF720FB801B642817
:10119000F0D820688003F7D42878800742D5D9F8A2
:1011A0000010484611F00C0F08D00068C0F3810011
:1011B00002280BD1DAF80000400207D4206880072B
:1011C00018D5E868012800D114E01EE1E86800287D
:1011D000206817D040F001002060FFF7F7FA0646BC
:1011E00005E000BFFFF7F2FA801B0228C2D8206892
:1011F0008007F7D52869216821F0F80141EAC0008D
:1012000020600FE020F001002060FFF7DFFA0646C3
:1012100005E000BFFFF7DAFA801B02281ED820681D
:101220008007F7D42878000729D5794869696C3098
:1012300000298046016812D041F001010160FFF7EA
:10124000C5FA064605E000BFFFF7C0FA801B02287A
:1012500004D8D8F800008007F6D510E089E021F026
:1012600001010160FFF7B2FA064604E0FFF7AEFAAB
:10127000801B02287DD8D8F800008007F6D4287893
:1012800040076BD5DFF8888108F13808D8F80000EE
:10129000C0000BD4D8F8001041F08051C8F80010FD
:1012A000D8F80000012700F08050009059480168EC
:1012B000C90512D40168834641F480710160FFF7CB
:1012C00085FA064605E000BFFFF780FA801B642818
:1012D0004FD8DBF80000C005F6D54D4EA86868363B
:1012E00001280AD008B1052811D0306820F001008B
:1012F0003060306820F0040002E0306840F0010007
:101300003060A868A0B1FFF761FA83460CE030684E
:1013100040F004003060F0E7FFF758FAA0EB0B0153
:1013200041F28830814268D830688007F4D50EE0F9
:10133000FFF74CFA834607E0FFF748FAA0EB0B01F2
:1013400041F28830814258D830688007F4D42FB1F8
:10135000D8F8001021F08051C8F80010A869E0B357
:10136000D9F80010C1F3810102294ED0022820686B
:1013700000E042E020F08070206003D0FFF726FA02
:1013800005463DE0FFF722FA064604E0FFF71EFAA5
:10139000801B022831D820688001F7D4D5E90921C3
:1013A000DFF874C0D5E9070695F830304F0895F896
:1013B0002C1030430CEB074545EA8212104340EAFB
:1013C000016040EA0370CAF80000206840F08070B5
:1013D0002060FFF7FBF9054605E014E0FFF7F6F99A
:1013E000401B022809D820688001F7D50BE000BF18
:1013F000FFF7ECF9401B022802D90320BDE8F88F63
:1014000020688001F4D40020F8E70120F6E700000E
:1014100008380240007000400000FFFF704770472E
:10142000704710B5040003D094F83D0010B107E0F8
:10143000012010BD002084F83C00204600F00CF88C
:10144000022084F83D002068211D00F043FE0120A9
:1014500084F83D00002010BD704700000168094A73
:10146000CB6843F00103CB60016888681040062810
:1014700006D0B0F5803F03D0086840F00100086056
:101480000020704707000100704770B504460068EF
:1014900000250169C943890715D4C168C943890773
:1014A00011D4EA1E0261012121772068806980073A
:1014B000204602D0FFF7E8FF04E000F0A7F820463E
:1014C00000F0A5F8257720680169C943490717D4BA
:1014D000C168C943490713D402216FF004020261B5
:1014E00021772068806910F4407F204602D0FFF702
:1014F000CBFF04E000F08AF8204600F088F825775A
:1015000020680169C943090716D4C168C94309079E
:1015100012D404216FF00802026121772068C069AB
:101520008007204602D0FFF7AFFF04E000F06EF81E
:10153000204600F06CF8257720680169C943C90688
:1015400017D4C168C943C90613D408216FF010022B
:10155000026121772068C06910F4407F204602D0E4
:10156000FFF792FF04E000F051F8204600F04FF83A
:10157000257720680169C943C90708D1C168C943F3
:10158000C90704D1891E0161204600F041F8206896
:101590000169C943090609D4C168C943090605D4CC
:1015A0006FF0800101612046FFF739FF2068016973
:1015B000C943C90509D4C168C943090605D46FF4F4
:1015C000807101612046FFF729FF20680169C94346
:1015D000490609D4C168C943490605D46FF04001E2
:1015E0000161204600F01EF820680169C9438906A0
:1015F0000BD4C168C943890607D46FF0200101618B
:101600002046BDE87040FFF70BBF70BD70477047C4
:1016100000680349884201D1FFF7DEB87047000037
:1016200000100040704770472DE9F0410268044601
:101630000025D0691168936810F00F0F5BD003F09C
:10164000010601F49077374369D0C70707D0CF056B
:1016500005D501271762E26F42F00102E2678207B7
:1016600008D5DA0706D0276802223A62E26F42F014
:101670000402E267420708D5DA0706D0236804228D
:101680001A62E26F42F00202E26702070AD501F035
:101690002002324306D0236808221A62E26F42F029
:1016A0000802E267E26F002A32D0800605D588067C
:1016B00003D5216E09B1204688472168E06F89680B
:1016C000490601D4000725D5204600F0F5FD206825
:1016D0008168490619D5816821F040018160E06E7A
:1016E00098B11A490165E06EFEF771FF00280FD02E
:1016F000E06E016D06E0830611D58B060FD5216ED5
:1017000012E02046BDE8F04108472046FFF78BFF76
:10171000BDE8F0812046FFF786FFE567F8E703069E
:1017200005D50B0603D5616E0029EAD1F0E7400626
:10173000EED54806ECD513682021204623F040035F
:1017400013606167656600F044F9E1E7A5220008CF
:1017500010B5040002D0606F10B107E0012010BD89
:10176000002084F87000204600F026F824206067EE
:101770002068016821F001010160204600F006FEAA
:101780000128ECD0606A10B1204600F009FD206805
:10179000416821F4904141602068816821F02A016C
:1017A00081602068016841F0010101602046BDE8C8
:1017B000104000F059BD000010B586B00446142159
:1017C0006846FEF7E1FD16492068884226D1154893
:1017D000016841F480210160006800F480200590D8
:1017E00010481038016841F00801016000680221CA
:1017F000002200F008000590032307244FF44070F6
:101800008DE81F0008486946FEF7F4FE0022052116
:101810002720FFF759F82720FFF748F806B010BD3A
:101820000048004040380240000C024070B5836F11
:10183000202B4BD1B9B1B2B190F87030012B45D00B
:101840008368012680F870600024416535030466D2
:10185000AB42A0F85820A0F85A204FF0FF0107D162
:10186000026912B126E0012070BD40F2FF1121E0B3
:101870004FF07F02E3B1B3F1805F1ED0A0F85C406F
:101880002221C467816701688A6842F001028A6088
:101890008168A94201D10169B1B10D49016680F8A1
:1018A00070400068016841F490710160002070BDD3
:1018B000036933B9A0F85C10E2E7016909B13F217F
:1018C000F8E7A0F85C20DBE70249E7E7022070BDFB
:1018D00033230008D92200080D4901220D4808B51C
:1018E000FFF7A4FF0A480178722910D10021009166
:1018F000406A694601F0B8FF0098002807D0064901
:101900004FF080500860BFF34F8FBFF36F8F08BD5B
:1019100000000020B000002004ED00E02DE9F843B5
:101920000446406F1F4616460D4620284FD1CDB1C4
:10193000C6B194F87000012849D0012284F87020C3
:1019400021214FF00008C4F87C806167FEF73EFF5C
:101950008146A068A4F85060A4F85260B0F5805F9A
:1019600003D004E00120BDE8F883206910B12E46C1
:10197000002510E000260EE08021204600F030FE19
:10198000B8B9C6B116F8010B21688862B4F85200E4
:10199000401EA4F85200B4F852004B464FF000022B
:1019A00000970028E8D14FF04001204600F018FED3
:1019B00038B10320D7E735F8020B2168C0F30800DF
:1019C000E3E720216167002084F87080CBE70220E4
:1019D000C9E77047FEE70000A8B02F4C00231A4665
:1019E0001946606A01F088FE04F130064FF0FF35B9
:1019F0004FF4FA67606A294601F08CFF27A1684618
:101A0000FEF7E0FC606A01F074FB34A1024627A8EF
:101A100000F01EFE32A16846FEF7C1FC27A9684609
:101A2000FEF7BDFC33A16846FEF7B9FC6846FEF739
:101A3000C2FC82B230482B466946FFF76FFF6068F0
:101A400026A156F8202026A800F002FE2BA1684609
:101A5000FEF7B8FC26A96846FEF7A1FC33A168464C
:101A6000FEF79DFC6846FEF7A6FC82B222482B4694
:101A70006946FFF753FF6068401C6060022801DD83
:101A8000002060600023606A1A46194601F034FEA7
:101A9000384601F021FCADE700000020456E74657A
:101AA00072656420494E5055544341505455524537
:101AB000205461736B0A2041626F756E7420746FDD
:101AC0002041435155495245207468652053656D46
:101AD0006170686F7265200A0000000025640000D4
:101AE000546F6B656E7320617661696C61626C65C1
:101AF000200000000A0A0000B00000204C6561765A
:101B0000696E6720494E50555443415054555245D3
:101B1000205461736B0A2044617461204143434542
:101B2000535345442069733A3A2000000A204E6F0F
:101B3000742072656C656173696E672074686520D6
:101B400053656D6170686F72650A0A0A00000000D3
:101B50002B4C0023A6B01A461946A06A01F0CCFD12
:101B60004FF4FA664FF0FF35A06A294601F0D2FE25
:101B700024A16846FEF726FC30A16846FEF70FFC5C
:101B80006846FEF718FC82B231482B466946FFF7DB
:101B9000C5FE304601F0A0FBE06A294601F0BAFE1E
:101BA0002CA16846FEF70EFC6846FEF704FC82B2E4
:101BB00027482B466946FFF7B1FE0023606A1A46A4
:101BC000194601F099FD0023E0691A46194601F013
:101BD00093FD304601F080FB0023A06A1A461946A7
:101BE00001F08AFD0023206A1A46194601F084FD9F
:101BF0000023E06A1A46194601F07EFDB4E70000B2
:101C000000000020456E7465726564204C57495091
:101C1000205461736B0A2041626F756E7420746F7B
:101C20002041435155495245207468652053656DE4
:101C30006170686F72650A0A0000000020536574C5
:101C400074696E6720755254552049500A0A000085
:101C5000B000002053656E642044617461200A2046
:101C60004C656176696E67204C574950205461730A
:101C70006B0A0A2000000000A8B02F4C00231A466F
:101C80001946206A01F038FD04F130064FF0FF35A7
:101C90004FF4FA67206A294601F03CFE27A1684606
:101CA000FEF790FB206A01F024FA32A1024627A831
:101CB00000F0CEFC30A16846FEF771FB27A968460C
:101CC000FEF76DFB2AA16846FEF769FB6846FEF742
:101CD00072FB82B22D482B466946FFF71FFE6068F3
:101CE00024A156F8202026A800F0B2FC28A16846BE
:101CF000FEF768FB26A96846FEF751FB2FA1684650
:101D0000FEF74DFB6846FEF756FB82B21F482B4696
:101D10006946FFF703FE6068401C6060022801DD31
:101D2000002060600023206A1A46194601F0E4FC96
:101D3000384601F0D1FAADE700000020456E746529
:101D4000726564204D4F44425553205461736B0AB1
:101D50002041626F756E7420746F20414351554964
:101D60005245207468652053656D6170686F7265B7
:101D70000A0A000025640000546F6B656E732061D1
:101D80007661696C61626C6520000000B000002023
:101D90004C656176696E67204D4F4442555320541F
:101DA00061736B0A2044617461204143434553537E
:101DB00045442069733A3A20000000000A204E6F23
:101DC000742072656C656173696E67207468652044
:101DD00053656D6170686F72650A0A0A0000000041
:101DE000A8B0264E4FF4FA674FF0FF35A6F1300445
:101DF0002946606A01F08EFDE069294601F08AFDFE
:101E0000206A294601F086FD1DA16846FEF7DAFA30
:101E10006846FEF7D0FA82B227482B466946FFF79C
:101E20007DFD606825A156F8202026A800F010FC52
:101E300023A16846FEF7C6FA26A96846FEF7AFFA60
:101E400029A16846FEF7ABFA6846FEF7B4FA82B2FB
:101E500019482B466946FFF761FD6068401C6060C9
:101E6000022801DD002060600023E06A1A4619465E
:101E700001F042FC384601F02FFAB9E730000020AB
:101E8000456E7465726564204D51545420546173DD
:101E90006B0A2041626F756E7420746F204143514C
:101EA00055495245207468652053656D6170686FAF
:101EB00072650A0A00000000B000002025640000DE
:101EC0004C656176696E67204D515454205461739E
:101ED0006B0A204461746120414343455353454498
:101EE0002069733A3A2000000A204E6F7420726510
:101EF0006C656173696E67207468652053656D61F8
:101F000070686F72650A0A0A0000000000B585B0AB
:101F1000064914226846FEF71EFA0021684600F0C2
:101F200013FE0349086005B000BD0000E03E000854
:101F30003C000020094808B5016841F080010160BB
:101F4000016801F080010091016841F00801016021
:101F5000006800F00800009008BD00003038024022
:101F60000D48002110B50B4C0C224FF4E1330460F6
:101F7000C0E90131C160C0E904128161C16101623F
:101F80004162FFF7E5FB002803D0BDE81040FEF7F3
:101F90001DBB10BD00480040B0000020FEE77047A8
:101FA000012000F0CAFDFBE7502010B572B680F3A7
:101FB0001188BFF34F8FBFF36F8F62B601F0EAFD58
:101FC00018B104494FF080500860002080F3118858
:101FD00010BD000004ED00E030B5B7B0342124A8F6
:101FE000FEF7D2F9142131A8FEF7CEF99021684608
:101FF000FEF7CAF91D48016841F080510160006890
:1020000000F0805036901A48016841F44041016068
:1020100000680123022400F4404036909805042112
:10202000D822CDE92A402CA81D0480E816002F9460
:1020300024A8CDE92435FFF753F8FEF777FCE10239
:102040004FF4A05031ABCDE934010F22002583E8D5
:102050003400072131A8FEF73DFFE0011395009001
:102060006846FEF799FC37B030BD000040380240AA
:1020700000700040104A30B51048146800210F4B22
:1020800044F470041460083305680D4A0D4C45F0A3
:102090000105056019600368051D1340074A0360C8
:1020A0000C322C600568E305034C25F4802505609F
:1020B000803C1160236030BD88ED00E000380240B4
:1020C000FFFFF6FE103000240148FFF7DEB90000E4
:1020D00030010020F0B5274B4FF0804E264D0268AE
:1020E0009842264E264F274C09D0704507D0A8426B
:1020F00005D0B04203D0B84201D0A04205D1D1F8FA
:1021000004C022F070024CEA020298421BD07045D3
:1021100019D0A84217D0B04215D0B84213D0A0426F
:1021200011D0194DA8420ED0184DA8420BD0184D11
:10213000A84208D0174DA84205D0174DA84202D09A
:10214000164DA84203D1CD6822F440722A434D694E
:1021500022F080022A43026098428A68C2620A68BA
:10216000826201D0A04201D109690163012141616C
:10217000F0BD0000000001400004004000080040E5
:10218000000C0040000401400040014000440140B8
:102190000048014000180040001C004000200040A2
:1021A00090F82410C90706D00168836A4A6822F4AF
:1021B00000321A434A6090F82410890706D5016856
:1021C000C36A4A6822F480321A434A6090F82410A5
:1021D000490706D50168036B4A6822F480221A4336
:1021E0004A6090F82410090706D50168436B4A68D5
:1021F00022F400421A434A6090F82410C90606D51A
:102200000168836B8A6822F480521A438A6090F8CE
:102210002410890606D50168C36B8A6822F400522F
:102220001A438A6090F82410490611D50168036C9E
:102230004A6822F480121A434A60016CB1F5801F8B
:1022400006D10168436C4A6822F4C0021A434A600E
:1022500090F82410090606D50168826C486820F4BD
:10226000002010434860704738B500250446C56714
:10227000FEF7ACFA03462068006800070BD56FF044
:102280007E400090002220464FF4001100F0A8F993
:1022900008B1032038BD2020606784F87050A06723
:1022A000002038BD10B5806B0021A0F85A10A0F8AE
:1022B0005210FFF7B8F910BD10B5016820220023B5
:1022C0000C6824F490740C6001688C6824F001049C
:1022D0008C608267036610BD10B5816FB0F85C201A
:1022E0002229016804D0886940F00800886110BD87
:1022F000496A436D11401980416D891C4165B0F8F0
:102300005A10491EA0F85A10B0F85A100029EED100
:102310000168202200230C6824F490740C6001688A
:102320008C6824F001048C6082670366FFF7D4FA9E
:1023300010BD10B5816FB0F85C202229016804D06F
:10234000886940F00800886110BD496A436D1140FA
:102350001970416D491C4165B0F85A10491EA0F82A
:102360005A10B0F85A100029EED10168202200233B
:102370000C6824F490740C6001688C6824F00104EB
:102380008C6082670366FFF7A7FA10BD2DE9F04164
:1023900004468068DFF818C2864F2368D4E90452E7
:1023A000E16928431E6800250A438349104306EA71
:1023B0000C0606431E604FF400422068E66843683E
:1023C00023F44053334343602368A669206AD3F85B
:1023D00008C030432CF4306606439E602068B84243
:1023E0000AD1086810F0030052D001287BD00228DF
:1023F0007AD003286ED186E0704B98420AD10868E3
:1024000010F00C0079D004287BD0082877D00C2855
:1024100060D178E06A4B98420AD1086810F0300029
:102420006BD010286DD0202869D0302852D16AE0B6
:10243000644B98420AD1086810F0C0005DD0402873
:102440005FD080285BD0C02844D15CE05E4B9842CE
:102450000DD1086810F440704FD0B0F5807F50D097
:10246000B0F5007F4BD0B0F5407F33D14BE0574BF8
:1024700098420FD1086810F4406009D0B0F5806F21
:102480003FD0B0F5006F3AD0B0F5406F22D13AE0BE
:10249000012120E04E4B98420DD1086810F44050C5
:1024A0002BD0B0F5805F2CD0B0F5005F27D0B0F511
:1024B000405F0FD127E0474B98420BD1086810F4DA
:1024C00040401AD0B0F5804F1BD0904217D0B0F5E5
:1024D000404F18D01021E0694FF6EF76904238D186
:1024E00009295DD202E00CE009E006E0DFE801F036
:1024F0000D1027582A5858582D000021EBE70221CB
:10250000E9E70421E7E70821E5E7FEF799FD01E0A7
:10251000FEF7A6FD0146D4F80400490001EB500186
:10252000B1FBF0F080B2A0F11001B14238D84FF603
:10253000F0732168C0F342021840104324E026499A
:102540006068EBE7FEF79CFDE4E760684FF48031DC
:10255000E4E7092924D2DFE801F0050819231C2348
:1025600023231F00FEF76CFD01E0FEF779FD014615
:10257000D4F8040001EB5001B1FBF0F080B2A0F1FF
:102580001001B1420CD82168C8600AE013496068A4
:10259000F0E7FEF775FDEAE7606802EB5001EBE754
:1025A00001250020206660662846BDE8F081000015
:1025B000F369FFEF001001409038024000440040F2
:1025C00000480040004C0040005000400014014012
:1025D00000780040007C00400048E8010024F4003E
:1025E0002DE9F041984617460E460446069D08E040
:1025F000681C06D0FEF7EAF8A0EB0800A8420BD84A
:1026000055B12068C06936EA000017D00020B842F2
:10261000EED00020BDE8F0812168202000220B6868
:1026200023F4D0730B6021688B6823F001038B6067
:102630006067A067032084F87020EBE70120E6E7DD
:102640000148FEF7F1BF0000B0000020FEE70000E7
:102650000FB4084B10B504A902AA039800F02CF897
:10266000044602A9002000F0D1F8204610BC5DF815
:1026700014FB00000D280008090700284FEA11612B
:1026800004DB00F1E02080F80014704700F00F0038
:1026900000F1E02080F8141D704702E008C8121F06
:1026A00008C1002AFAD170477047002001E001C13B
:1026B000121F002AFBD170472DE9FF4F89B09B46BE
:1026C0000446002506E025280BD05A460B99904772
:1026D000641C6D1C20780028F5D10DB02846BDE89B
:1026E000F08F0027B8460122474900E0074314F85D
:1026F000013F203B02FA03F00842F7D120782E2850
:1027000019D114F8010F47F004072A280ED06FF0F2
:102710002F022078A0F1300109290CD808EB88019C
:1027200002EB410100EB0108641CF2E70A98641C0B
:1027300050F8048B0A9020780028CED0642808D066
:10274000692806D075281ED05A460B9990476D1CF3
:1027500058E00A994FF00A0901C90A91002802DAE3
:1027600040422D2102E0390504D52B218DF820109F
:10277000012103E0F90704D02021F7E78A4608AEDB
:102780000DE00021FAE70A994FF00A0901C90A9100
:10279000F7E74946FDF71FFE303106F8011D002816
:1027A000F7D1ADEB060000F12009780701D44FF016
:1027B0000108C84502DDA8EB090000E000208046C2
:1027C000002706E008A85A46C05D0B9990476D1C8B
:1027D0007F1C5745F6DB04E030205A460B999047A2
:1027E0006D1CB8F10001A8F10108F5DC05E016F850
:1027F000010B5A460B9990476D1CB9F10001A9F1E4
:102800000109F4DC641C65E7092801000A68531C0F
:102810000B601070704700001CB5FDF7E5FFFFF777
:10282000DBFBFFF787FBFFF79BFB4F4901224F487C
:10283000FEF7FCFF0021012000F0CAFE4A4C0021F7
:102840002062012000F0C4FE00216062012000F03F
:10285000BFFE0021A062012000F0BAFE0021E0616D
:10286000012000F0B5FEE0624FF47A75206A00287E
:1028700065D029222B463EA13C48FFF74FF8606AFD
:10288000002860D032222B4644A13848FFF746F892
:10289000A06A00285BD029222B464DA13348FFF7C0
:1028A0003DF8A06A002856D029222B4653A12F4874
:1028B000FFF734F8A06A002851D032222B4659A1E4
:1028C0002A48FFF72BF828490520002308318022E9
:1028D000CDE9000162485EA101F022F922490220FF
:1028E00000230C318022CDE9000160485DA101F098
:1028F00017F91D490420002310318022CDE9000181
:102900005C485BA101F00CF9174901200023143148
:102910008022CDE900015A4857A101F001F912497E
:102920000320002318318022CDE90001574855A12A
:1029300001F0F6F800F07CFDFFF7E8FAFEE764230B
:102940001C2253A198E764231C2259A19DE764230C
:102950001C2260A1A2E764231C2265A1A7E76423CF
:102960001C226AA1ACE7000000000020B00000209B
:102970004D6F6442757353656D2053656D6170686A
:102980006F7265204372656174656420737563635B
:1029900065737366756C6C790A0A0000496E707510
:1029A000744361707475726553656D2053656D6114
:1029B00070686F7265204372656174656420737519
:1029C000636365737366756C6C790A0A00000000B6
:1029D0004C57495053656D2053656D6170686F7237
:1029E0006520437265617465642073756363657304
:1029F0007366756C6C790A0A000000004144435309
:102A0000656D2053656D6170686F726520437265F6
:102A100061746564207375636365737366756C6C4C
:102A2000790A0A0053656E64696E6753656D2053B9
:102A3000656D6170686F726520437265617465646D
:102A4000207375636365737366756C6C790A0A002D
:102A5000494E5055544341505455524500000000D2
:102A6000D91900084D4F444255530000791C000805
:102A700041444300650400084D51545400000000D7
:102A8000E11D00084C57495000000000511B000890
:102A9000556E61626C6520746F2043726561746568
:102AA000204D6F6442757353656D0A0A0000000083
:102AB000556E61626C6520746F2043726561746548
:102AC00020496E7075744361707475726553656DDD
:102AD0000A0A0000556E61626C6520746F204372B3
:102AE00065617465204C57495053656D0A0A0000B2
:102AF000556E61626C6520746F2043726561746508
:102B00002041444353656D0A0A000000556E61621E
:102B10006C6520746F204372656174652053656E27
:102B200064696E6753656D0A0A00000084280146D7
:102B30004FF0000000D0C81C704710B500B901204C
:102B400000F0CAFB002010BD3EB50D460446B0F9AA
:102B50000800FFF7EBFF02A92B46CDE90001228A0E
:102B6000D4E9001092B200F0DBFF012801D0002070
:102B70003EBD02983EBD00002DE9F041184C0F46C5
:102B8000054666692068001D00F0A0FA38B9226881
:102B90000121A06992F82C2091408843A061681C13
:102BA00007D137B12168BDE8F0410E48091D00F09A
:102BB000DABA20683544B5424560216805D2A0687C
:102BC000091DBDE8F04100F0B6BA6068091D00F0CB
:102BD000B2FA206B854200D22563BDE8F081000087
:102BE000500000204C0200202DE9F041054600F085
:102BF000C7FA2E4C2E4F2069401C2061206810B16E
:102C0000E06940B32DE025602069012829D1002624
:102C100006EB860007EB800000F07FFA761C072E9B
:102C2000F6D323488C3000F078FA2148A03000F029
:102C300074FA1F48B43000F070FA1D48C83000F034
:102C40006CFA1B48DC3000F068FA19488C30606080
:102C50001430A06005E0E86A2168C96A814200D8A2
:102C600025600120E16A491CE162E96AA2698840A5
:102C70001043A06101EB8100291D07EB800000F0EB
:102C800072FA00F0A1FAE06900280CD02068E96A25
:102C9000C06A884207D207494FF080500860BFF3EE
:102CA0004F8FBFF36F8FBDE8F08100005000002010
:102CB0007001002004ED00E02DE9F041856B17461E
:102CC000026C0446002682B1C7B1E068FDF743FB01
:102CD000E168206C2268091AE160914202D26168C1
:102CE000081AE060022F16D017E02068A8B96068C3
:102CF00000F0B6FF0646002060600EE0A068FDF719
:102D00002AFBD4E90110226C1044A060884204D34D
:102D10002068A06001E005B16D1E6D1CA563304602
:102D2000BDE8F08110B50446006B00F063FA204660
:102D3000BDE8104000F05EBA11484FF4705110B574
:102D4000420706D00E49C01D20F00700411AC1F508
:102D500070510C4C002301440839A4F1100221F0F9
:102D60000701C4E900030C1A11604B600B60C0E955
:102D7000001494604FF000415460D16010BD000019
:102D8000600200209C000020144E4FF08058144C2C
:102D9000DFF85090A6F1C80712E000BF00F0F0F98C
:102DA000F068C568281D00F091F92069401E206177
:102DB000E068401EE06000F007FA2846FFF7B2FF27
:102DC000E0680028EAD138680128F9D9C9F80080FC
:102DD000BFF34F8FBFF36F8FF2E700003802002080
:102DE0005000002004ED00E02DE9F0479A468146AE
:102DF0006FF00303DDE9098403EB8202089D206B79
:102E0000104420F00706700709D0502072B680F3F6
:102E10001188BFF34F8FBFF36F8F62B6FEE72318A1
:102E20000A5C83F834200A5C12B1401C1028F6D3E7
:102E3000002784F84370072D00D30625E562201D86
:102E4000C4E9115700F074F904F1180000F070F9AA
:102E5000E764C5F10700A06184F850705246246110
:102E600049463046646200F019F9B8F1000F20605D
:102E700001D0C8F80040BDE8F087000030B5114926
:102E800000E011460A688242FBD34B685C1884421A
:102E900003D14468084623444B6043681D1895429B
:102EA00009D1084C103C2468A24209D052681A4447
:102EB00042600A6812680260814200D0086030BD3A
:102EC0000460F9E79C00002010B5044600F058F9B2
:102ED000A06B28B15FF0000400F076F9204610BD29
:102EE0000124F9E706484168096829B14168C968C1
:102EF000C9684968016370474FF0FF31FAE7000085
:102F0000500000200A484068401C4FF0500072B644
:102F100080F3118805D0BFF34F8FBFF36F8F62B678
:102F2000FEE7BFF34F8FBFF36F8F62B6FEE700007F
:102F3000A40000202DE9F041044600F021F994F9A5
:102F4000455004F1240609E0606A48B1304600F0BB
:102F500027FF08B100F0F0F96D1E6DB2002DF3DC13
:102F60004FF0FF3684F8456000F02EF900F008F9C4
:102F700094F9445004F1100709E0206948B138463B
:102F800000F00EFF08B100F0D7F96D1E6DB2002DF4
:102F9000F3DC84F84460BDE8F04100F015B90000AE
:102FA0002DE9F0410027044600F07AFA344E3068EB
:102FB00008B9FFF7C1FEF06804424FD1E4B308340A
:102FC000600710D004F00700C0F108000444600757
:102FD00009D0502072B680F31188BFF34F8FBFF332
:102FE0006F8F62B6FEE73CB37068844236D82448DF
:102FF000103001460D6801E028460D466968A1427F
:1030000002D229680029F7D131688D4226D007689D
:103010002968016008376868011B102911D928192F
:1030200042070AD0502072B680F31188BFF34F8F49
:10303000BFF36F8F62B6FEE710E041606C60FFF790
:103040001DFF69687068401A7060B268904200D2D3
:10305000B0600020F2681143C5E9000100F0DCFE19
:10306000780709D0502072B680F31188BFF34F8FD4
:10307000BFF36F8F62B6FEE73846BDE8F08100000F
:103080008C0000200449086818B10868826C521C42
:1030900082640868704700005000002070B5041F6B
:1030A000094E231F4FF0807521F0010125601C1F80
:1030B0001960A0F120010B1F266044380A606FF0F0
:1030C00002051D6070BD0000052F0008D0E9013227
:1030D00001699A60D0E901235A604A68824201D1AD
:1030E00082684A60002202610868401E0860086821
:1030F000704710B5040006D000F042F8A46B00F051
:1031000063F8204610BD502072B680F31188BFF3DB
:103110004F8FBFF36F8F62B6FEE74FF0FF3300F1C2
:1031200008010022C0E901130260C160016170471B
:1031300000210161704730B50B685A1C02D000F1C4
:10314000080202E0026904E02246546825689D42B4
:10315000FAD953684B6099608A60516008610168D0
:10316000491C016030BD42684A6093688B60936877
:103170005960916008610168491C01607047000056
:10318000502072B680F31188BFF34F8FBFF36F8F5B
:103190000B4962B64868401C486001280ED10948B6
:1031A000006810F0FF0F09D0502072B680F311882C
:1031B000BFF34F8FBFF36F8F62B6FEE7704700001B
:1031C000A400002004ED00E00949486828B1401E31
:1031D000486001D180F311887047502072B680F3A7
:1031E0001188BFF34F8FBFF36F8F62B6FEE7000009
:1031F000A400002070B500282BD0164DA0F10804C3
:103200006068E968084209D1502072B680F31188DD
:10321000BFF34F8FBFF36F8F62B6FEE722684AB1EC
:10322000502072B680F31188BFF34F8FBFF36F8FBA
:1032300062B6FEE78843606000F032F96068696852
:10324000084468602046FFF719FEBDE8704000F0B2
:10325000E3BD70BD8C0000204FF0E0200021016133
:103260004FF47A728161072303490968B1FBF2F1D7
:10327000491E4161036170474C00002010B5FDF705
:1032800023F81349102810D300F1E0200A7890F8B1
:10329000F003904209D2502072B680F31188BFF338
:1032A0004F8FBFF36F8F62B6FEE70A4889680068E8
:1032B00000F4E060884209D9502072B680F311888A
:1032C000BFF34F8FBFF36F8F62B6FEE710BD0000F4
:1032D000A40000200CED00E0020010B516D010484C
:1032E000806B48B1502072B680F31188BFF34F8FC6
:1032F000BFF36F8F62B6FEE700F0D2F800211046F0
:10330000FFF73AFC00F088FD002807D105494FF08F
:1033100080500860BFF34F8FBFF36F8F10BD000068
:103320005000002004ED00E002498A6A0260496909
:1033300041607047500000200149012048627047F9
:103340005000002010B50C4650B10A4909681831E8
:10335000FFF7F1FE2046BDE810400121FFF70CBC4D
:10336000502072B680F31188BFF34F8FBFF36F8F79
:1033700062B6FEE75000002070B50028044651D028
:10338000A26CB2B1606C884200D30146E06A884208
:1033900048D0012A46D1244D2A68944213D15020A6
:1033A00072B680F31188BFF34F8FBFF36F8F62B691
:1033B000FEE7502072B680F31188BFF34F8FBFF342
:1033C0006F8F62B6FEE7A269E162002A02DBC1F1FB
:1033D0000701A161154E00EB8000616906EB8000DA
:1033E00081421FD1201DFFF771FE00284FF0010020
:1033F0000AD1E16A01EB810256F8222022B9AA69BA
:1034000000FA01F18A43AA61E16AAA69884010437F
:10341000A86101EB8100211D06EB8000BDE8704032
:10342000FFF7A1BE70BD0000500000207001002019
:10343000174818A11CB5002480222346CDE900407E
:10344000164800F06DFB01280BD0401C1ED1502007
:1034500072B680F31188BFF34F8FBFF36F8F62B6E0
:10346000FEE7502072B680F31188BFF34F8FBFF391
:103470006F8F62B606484FF0FF3234380121026385
:10348000C1614461BDE81C4000F042B81CBD0000B1
:103490008400002049444C4500000000892D0008AC
:1034A0000248816B491C8163704700005000002076
:1034B0001548816B11B101214162704700214162C1
:1034C00012498269B2FA82F2C2F11F0202EB820251
:1034D00051F822306BB101EB820101F108034A6817
:1034E00052684A609A4201D152684A60D1680160CC
:1034F0007047502072B680F31188BFF34F8FBFF32F
:103500006F8F62B6FEE700005000002070010020BF
:103510002B49FF201CB50A780192087008788DF8B5
:1035200000009DF800209DF8000002F0F0028242A9
:1035300009D0502072B680F31188BFF34F8FBFF3CC
:103540006F8F62B6FEE79DF8002007201D4C02F049
:1035500050022270A06005E09DF8002052008DF816
:103560000020401E9DF800201206F5D40328A0601C
:1035700009D0502072B680F31188BFF34F8FBFF38C
:103580006F8F62B6FEE74FF44070A060019808703C
:103590000D48016841F470010160016841F070411B
:1035A0000160FFF759FE00206060FCF753FE0748FA
:1035B000016841F040410160FCF738FE00201CBD6D
:1035C00000E400E0A400002020ED00E034EF00E083
:1035D00010B50C4658B1844213D9502072B680F30E
:1035E0001188BFF34F8FBFF36F8F62B6FEE7502095
:1035F00072B680F31188BFF34F8FBFF36F8F62B63F
:10360000FEE70222002100F004F8002800D08463C5
:1036100010BD70B505000E4613D0E6B105FB06F0EF
:103620004830FFF7BDFC040009D004F148012046F2
:103630009EB101600121C0E90F5600F011F820464B
:1036400070BD502072B680F31188BFF34F8FBFF367
:103650006F8F62B6FEE70020E2E70060EAE7000055
:103660002DE9F04704008A4629D0FFF789FD21683B
:103670000025D4E90F23D4F840C004F11008104607
:103680000E46401E4FF0FF3902FB031200FB0C10E8
:10369000BAF1000FA563A66084F8449084F84590C1
:1036A0006260E06015D04046FFF737FD04F124006A
:1036B000FFF733FDFFF788FD0120BDE8F0875020BC
:1036C00072B680F31188BFF34F8FBFF36F8F62B66E
:1036D000FEE720690028EDD0404600F061FB00289D
:1036E000E8D004494FF080500860BFF34F8FBFF31C
:1036F0006F8FDFE704ED00E02DE9FF4704001D4672
:1037000082B08A464FF0000803D0BAF1000F0AD009
:1037100015E0502072B680F31188BFF34F8FBFF3CE
:103720006F8F62B6FEE7206C48B1502072B680F30E
:103730001188BFF34F8FBFF36F8F62B6FEE7022D84
:103740000CD1E06B012809D0502072B680F31188AB
:10375000BFF34F8FBFF36F8F62B6FEE700F00CFA36
:10376000404F4FF080564FF0000958B9049848B1C7
:10377000502072B680F31188BFF34F8FBFF36F8F65
:1037800062B6FEE7FFF7FCFCA06BE16B884207D353
:10379000022D05D00498D0B1B8F1000F1AD01EE068
:1037A0002A4651462046FFF787FA616A19B104F1AB
:1037B000240000F0F5FA20B13E60BFF34F8FBFF355
:1037C0006F8FFFF701FD012006B0BDE8F087FFF71E
:1037D000FBFC22E06846FFF7A7FD4FF00108FFF76A
:1037E000F3FCFFF75DFEFFF7CBFC94F94400401CAF
:1037F00001D184F8449094F94500401C01D184F82B
:103800004590FFF7E1FC04A9684600F049F930B1A2
:103810002046FFF78FFB00F0FFFA0020D4E7FFF708
:10382000AFFCA06BE16B884213D1FFF7CDFC04998C
:1038300004F11000FFF786FD2046FFF77BFB00F048
:10384000EBFA00289ED13E60BFF34F8FBFF36F8F1E
:1038500098E7FFF7B9FC2046FFF76CFB00F0DCFAB5
:1038600090E7000004ED00E070B504000E460BD0B8
:10387000206C98B1502072B680F31188BFF34F8F3F
:10388000BFF36F8F62B6FEE7502072B680F31188E7
:10389000BFF34F8FBFF36F8F62B6FEE7206858B952
:1038A000606848B1502072B680F31188BFF34F8F23
:1038B000BFF36F8F62B6FEE7FFF7E0FC5020EFF337
:1038C000118572B680F31188BFF34F8FBFF36F8FEE
:1038D00062B6D4E90E10884218D994F94500491C03
:1038E000A163411C04D0401C84F8450001200EE077
:1038F000606A0028FAD004F1240000F051FA002890
:10390000F4D0002EF2D001203060EFE7002085F3E4
:10391000118870BD2DE9F3434FF0000604003546D1
:1039200083B00BD0206C98B1502072B680F3118810
:10393000BFF34F8FBFF36F8F62B6FEE7502072B6B2
:1039400080F31188BFF34F8FBFF36F8F62B6FEE72E
:1039500000F012F9DFF844814FF080574FF0000972
:1039600058B9049848B1502072B680F31188BFF35B
:103970004F8FBFF36F8F62B6FEE7FFF701FCA06BBE
:10398000C8B12168401EA06311B9FFF77BFB6060DE
:10399000206950B104F1100000F002FA28B1C8F813
:1039A0000070BFF34F8FBFF36F8FFFF70DFC012047
:1039B00005B0BDE8F083049808B176B111E04DB1CF
:1039C000502072B680F31188BFF34F8FBFF36F8F13
:1039D00062B6FEE7FFF7F8FB5EE06846FFF7A4FC7F
:1039E0000126FFF7F1FBFFF75BFDFFF7C9FB94F939
:1039F0004400401C01D184F8449094F94500401CD7
:103A000001D184F84590FFF7DFFB04A9684600F078
:103A100047F80028204612D0FFF78CFA00F0FCF996
:103A20002046FFF751FA0028A7D075B3FFF7A8FB8F
:103A3000606A58B3206B0068C0F1070128E0FFF707
:103A400043FAE0B1206838B9FFF79AFB606800F0EC
:103A50005BF90546FFF7B8FB049904F12400FFF772
:103A600071FC2046FFF766FA00F0D6F9002884D1F1
:103A7000C8F80070BFF34F8FBFF36F8F7DE720460C
:103A8000FFF758FA00F0C8F977E705E0FFE70021F3
:103A90006068FFF771FC9DE7002089E704ED00E016
:103AA0002DE9F04105000C4612D0DCB1FFF768FBB0
:103AB0001A4E20687269471C6B68A2EB03011BD089
:103AC0002F68B66AB74219D0934217D8012520E073
:103AD000502072B680F31188BFF34F8FBFF36F8F02
:103AE00062B6FEE7502072B680F31188BFF34F8FA5
:103AF000BFF36F8F62B6FEE700250AE0884205D962
:103B0000401A20602846FFF70FFCF5E700202060F0
:103B10000125FFF759FB2846BDE8F0815000002041
:103B20002DE9FF5F994616468A4683469000DDE9F7
:103B30000E87FFF735FA05001AD05420FFF730FA48
:103B4000040012D000212563CDE900874B463246A0
:103B5000CDE9024151465846FFF746F92046FFF7A6
:103B600043F8012004B0BDE8F09F2846FFF742FB70
:103B70004FF0FF30F6E700000548C16919B1806BCE
:103B800018B10020704701207047022070470000E4
:103B9000500000202DE9F0412F4CA06B002740B1D0
:103BA000206A401C2062606A00B101273846BDE8E7
:103BB000F0816669761C666115D16068006848B15D
:103BC000502072B680F31188BFF34F8FBFF36F8F11
:103BD00062B6FEE76068A1686160A060A06A401CF0
:103BE000A062FFF77FF9DFF87480206B864209D36B
:103BF0006068006880B16068C068C56868688642AF
:103C00000DD220632068C06A00EB800158F82100C3
:103C10000128C8D90127C6E74FF0FF30F1E7281D7A
:103C2000FFF754FAA86A18B105F11800FFF74EFA29
:103C3000E86A0121A26981401143A16100EB800182
:103C400008EB8100291DFFF78EFA2068E96AC06A37
:103C50008142CDD30127CBE7500000207001002026
:103C600070B504464FF00001F0B3254D286884423A
:103C700009D0502072B680F31188BFF34F8FBFF385
:103C80006F8F62B6FEE7A06C38B1636C401EE26ACB
:103C9000A0649A4231D050B12FE0502072B680F328
:103CA0001188BFF34F8FBFF36F8F62B6FEE7201D01
:103CB000FFF70CFA134900284FF001000AD1E26A1D
:103CC00002EB820351F8233023B9AB6900FA02F208
:103CD0009343AB61626CC2F10703A361E262AB691B
:103CE00090401843A86100E007E002EB820001EB7E
:103CF0008000211DFFF737FA0121084670BD000042
:103D0000500000207001002070B5002804464FF0DC
:103D100000003AD0204DE16A2A68D26A914235D239
:103D2000A069002804DB2868C06AC0F10700A06110
:103D30001A4E01EB8101606906EB8101884220D1B6
:103D4000201DFFF7C3F900284FF001000AD1E16AF6
:103D500001EB810256F8222022B9AA6900FA01F18A
:103D60008A43AA612968C96AE162AA698840104346
:103D7000A86101EB8100211D06EB8000FFF7F3F93C
:103D800002E02868C06AE062012070BD2968626CA8
:103D9000C96A8A42F8D370BD50000020700100202B
:103DA0002DE9F041C068C468ACB104F118000746C1
:103DB000FFF78CF9164D0126A86BB0B115483946AE
:103DC000FFF7D1F9E06A2968C96A88421ED9012043
:103DD0006E62BDE8F081502072B680F31188BFF3A7
:103DE0004F8FBFF36F8F62B6FEE7201DFFF76EF9AE
:103DF000E06AAA6906FA00F11143A961054900EBDE
:103E00008000B43901EB8000211DD9E70020E0E7F4
:103E100050000020240200202DE9F0472D4DA86B12
:103E20000024264638B1FFF7ABF9A86B401EA86303
:103E3000A86B50B149E0502072B680F31188BFF3EF
:103E40004F8FBFF36F8F62B6FEE7234F01202969C2
:103E5000D9B3A7F1B40980463868E8B1F868C468F6
:103E600004F11800FFF732F9201DFFF72FF9E16A7E
:103E7000AA6908FA01F01043A86101EB810109EB7E
:103E80008100211DFFF76FF92968E06AC96A88423D
:103E9000E2D3C5F82480DFE70CB1FFF723F82C6AE2
:103EA00044B14746FFF776FE00B16F62641EF9D158
:103EB00000202862686A40B1084901264FF080500E
:103EC0000860BFF34F8FBFF36F8FFFF77DF9304668
:103ED000BDE8F087500000202402002004ED00E03F
:103EE0000C3F0008A11F00080000000000000000B7
:103EF0008000000000000000000000000102030438
:103F000006070809000000000102030464656661F9
:103F1000756C745461736B00383F0008000000201A
:103F2000B00000009A260008E83F0008B00000201A
:103F3000B0410000AA2600080000000000000000B8
:103F40000000000000000000000000000000000071
:103F50000000000000000000000000000000000061
:103F600000000000000000006F000000DE00000004
:103F70004D010000000000000100000010000000E2
:103F8000000000000024F400000000000000000019
:103F90000000000000000000000000000000000021
:103FA0000000000000000000000000000000000011
:103FB0000000000000000000000000000000000001
:103FC00000000000000000000000000000000000F1
:103FD00000000000000000000000000000000000E1
:083FE000AAAAAAAA0000000031
:04000005080001F9F5
:00000001FF
