:020000040800F2
:10000000E8420020D10200085F250008B520000862
:100010005D250008710600086D2C00080000000036
:100020000000000000000000000000000D020008B9
:10003000730600080000000069020008612500083E
:10004000EB020008EB020008EB020008EB020008DC
:10005000EB020008EB020008EB020008EB020008CC
:10006000EB020008EB020008EB020008EB020008BC
:10007000EB020008EB020008EB020008EB020008AC
:10008000EB020008EB02000869040008EB0200081C
:10009000EB020008EB020008EB020008EB0200088C
:1000A000EB020008EB020008EB020008EB0200087C
:1000B000EB020008EB020008EB020008EB0200086C
:1000C000EB020008EB020008EB020008EB0200085C
:1000D000EB020008EB020008EB020008612C0008AC
:1000E000EB020008EB020008EB020008EB0200083C
:1000F000EB020008EB020008EB020008EB0200082C
:10010000EB020008EB020008EB020008EB0200081B
:10011000EB020008EB02000881260008EB02000851
:10012000EB020008EB020008EB020008EB020008FB
:10013000EB020008EB020008EB020008EB020008EB
:10014000EB020008EB020008EB020008EB020008DB
:10015000EB020008EB020008EB020008EB020008CB
:10016000EB020008EB020008EB020008EB020008BB
:10017000EB020008EB020008EB02000800000000A0
:10018000EB020008EB020008EB020008EB0200089B
:10019000EB020008EB020008EB020008EB0200088B
:1001A000EB020008EB020008EB020008EB0200087B
:1001B000EB020008EB020008EB020008EB0200086B
:1001C000EB020008EB02000800000000EB02000850
:1001D000EB020008EB020008EB020008EB0200084B
:1001E000EB020008EB020008EB020008EB0200083B
:1001F000EB020008EB020008DFF80CD000F022F957
:1002000000480047DD360008E84200202D4B196801
:100210000868B0E8F04F80F30988BFF36F8F4FF0A4
:10022000000080F311887047000000000848006853
:10023000006880F308884FF0000080F3148862B6ED
:1002400061B6BFF34F8FBFF36F8F00DF00BF00BFFA
:1002500008ED00E0DFF80C00016841F47001016076
:10026000704700BF88ED00E0EFF30980BFF36F8FA8
:10027000144B1A681EF0100F08BF20ED108A20E9F9
:10028000F04F106009B44FF0500072B680F311883F
:10029000BFF34F8FBFF36F8F62B604F02BF94FF0AF
:1002A000000080F3118809BC19680868B0E8F04FB5
:1002B0001EF0100F08BFB0EC108A80F30988BFF35E
:1002C0006F8F704748000020EFF3058070470000F3
:1002D0000648804706480047FEE7FEE7FEE7FEE7E0
:1002E000FEE7FEE7FEE7FEE7FEE7FEE72D26000855
:1002F000F90100082DE9F05F0546002092469B4673
:1003000088460646814640241BE02846414647462B
:10031000224600F06FF853465A46C01A914110D356
:1003200011461846224600F056F82D1A67EB0108D0
:100330004F4622460120002100F04DF817EB00093E
:100340004E41201EA4F10104DFDC484631462A4616
:100350004346BDE8F09F40EA01039B0703D009E054
:1003600008C9121F08C0042AFAD203E011F8013BA1
:1003700000F8013B521EF9D27047D2B201E000F8FA
:10038000012B491EFBD270470022F6E710B5134639
:100390000A4604461946FFF7F0FF204610BD421EEC
:1003A00012F8013F002BFBD111F8013B02F8013B91
:1003B000002BF9D17047421C10F8011B0029FBD11A
:1003C000801A7047034611F8012B00F8012B002A10
:1003D000F9D118467047202A04DB203A00FA02F1CE
:1003E000002070479140C2F1200320FA03F3194323
:1003F00090407047202A04DB203A21FA02F00021C5
:10040000704721FA02F3D040C2F120029140084324
:100410001946704770B521F0004303430CD0C1F377
:100420000A550024D5EB040564EB0403D617AD1A76
:10043000B34102DB0020014670BD201841EB0251A0
:1004400070BD0000064C074D06E0E06840F0010377
:1004500094E8070098471034AC42F6D3FFF7D0FE7B
:10046000B84F0008D84F0008014800F0E3B9000079
:10047000AC0000204A496FF0706210B5D1F8043327
:1004800023F44033C1F80433D1F8043344682343E0
:10049000C1F8043301684B6823F480734B60016832
:1004A00003694C6844EA03234B6001684B6823F0FE
:1004B00040734B60016884684B6823434B6001685C
:1004C0008B6823F400638B600168C4688B682343E6
:1004D0008B60816AD14201688A6822F070628A600A
:1004E00001680DD0836A8A681A438A6001688A6845
:1004F00022F040528A600168C36A8A681A4302E0A7
:100500008A6822F040528A6001688A6822F00202FA
:100510008A60016882698B6843EA42028A6090F8C7
:1005200020100029016811D01E4A4B6843F4006373
:100530004B6001684B6823F460434B600168446A78
:100540004B6802EB443213434B6003E04A6822F4E9
:1005500000624A600168144BCA6A22F47002CA62DF
:100560000168848BCA6A03EB04531A43CA620168A8
:100570008A6822F400728A60016890F830208B68E3
:1005800043EA42228A6001688A6822F480628A60B3
:10059000016840698A6842EA8020886010BD0000D6
:1005A0000020014000E0FFFF0000F0FF1A4C002394
:1005B000A6B01A461946E06904F0C0F84FF0FF35BE
:1005C000E069294604F072F914A16846FFF7FAFEC3
:1005D0001FA16846FFF7E3FE6846FFF7ECFE82B214
:1005E0001C482B46694601F009FD1BA16846FFF730
:1005F000E9FE6846FFF7DFFE82B216482B466946E1
:1006000001F0FCFC0023E0691A46194604F096F854
:10061000206903F007FFD3E700000020456E7465F2
:1006200072656420414443205461736B0A20416227
:100630006F756E7420746F204143515549524520A7
:100640007468652053656D6170686F72650A0A0091
:100650000A0A0000340100204C656176696E67204B
:10066000414443205461736B0A200A0A00000000D1
:10067000FEE7704770477047F8B50025009590F881
:100680003C20012A18D0012280F83C200A68072368
:100690004E4C0668092A1AD90A3A02EB4207F26858
:1006A000BB409A43F2600E680268A64206D10B7AFC
:1006B000D66846EA036308E00220F8BD0A3E8B686C
:1006C000D76806EB4606B3403B43D3600EE002EB2F
:1006D00042073269BB409A43326103680E788A68E8
:1006E0001F6906EB4606B2403A431A614A681F2367
:1006F000072A13D20668521E02EB8207726BBB40B8
:100700009A43726303680E790A88761E5F6B92B211
:1007100006EB8606B2403A435A6327E006680D2A84
:1007200012D2D21F02EB8207326BBB409A43326374
:1007300002680E790B88F61F176B9BB206EB8606D4
:10074000B3403B43136311E00D3A02EB8207F26AB8
:10075000BB409A43F26202680E790B880D3ED76A5D
:100760009BB206EB8606B3403B43D362184A03684C
:10077000934208D10B68122B05D1D2F8043343F40D
:100780008003C2F80433036893421AD10B68A34272
:1007900001D0112B15D1D2F8043343F40003C2F871
:1007A00004330968A1420CD10A490B4A0968B1FB1C
:1007B000F2F101EB8101490000E0491E009100299E
:1007C000FBD180F83C500020F8BD00001200001062
:1007D000002001404400002040420F0010B50F4AA5
:1007E0002DED028B0168914214D100F020F808EE43
:1007F000100AB2EE081BB0EE000B02F061FAB8EE80
:10080000482B9FED071B084882EE003B23EE010BAF
:1008100080ED0C0BBDEC028B10BD000000200140F0
:100820006666666666660A400000002070470068DB
:10083000C06C704770B50446006801684268C1F337
:100840004001C2F3401251B34AB3216CC90603D42C
:10085000216C41F400712164816811F0405F17D16F
:10086000A169A9B9C16A11F4700F02D08168490564
:100870000ED4416821F020014160206C20F480708A
:100880002064206CC00403D4206C40F0010020647C
:100890002046FFF7A3FF21686FF012000860206870
:1008A00001684268C1F38001C2F3C01289B382B308
:1008B000216CC90603D4216C41F400512164816884
:1008C00011F4401F1ED1816B11F4401F02D08168CA
:1008D000490517D44168490514D4816811F0405F77
:1008E00010D1A16971B9416821F080014160206C8B
:1008F00020F480502064206CC00503D4206C40F0AC
:10090000010020642046FFF7B6FE21686FF00C005E
:10091000086020680168436811F0010FC3F380117B
:100920000ED069B10068C0070AD0206C40F4803056
:100930002064204600F046F821686FF0010008604E
:10094000206801684268C1F340110029C2F3806247
:100950000DD0002A0BD0616C6FF0200541F0020130
:10096000616405602046FFF761FF2068056070BD87
:1009700070B504004FF0000503D0206C002610B1C4
:1009800007E0012070BD204600F01EF8666484F880
:100990003C60206CC00610D4206C20F4885040F0DD
:1009A000020020642046FFF765FD6664206C20F09D
:1009B000020040F00100206400E0012584F83C6062
:1009C000284670BD7047000010B586B0044614215B
:1009D0006846FFF7D9FC15492068884223D114489E
:1009E000016841F480710160006800F48070059036
:1009F0000F481438016841F00101016000680321CB
:100A0000002200F00100059008208DE80700094849
:100A1000694600F09BF800220521122000F000FA40
:100A2000122000F0EFF906B010BD000000200140D8
:100A3000443802400000024018B50022009290F8AD
:100A40003C10012907D0012180F83C1001688B6817
:100A5000DB0702D011E0022018BD8C682D4B44F05A
:100A600001048C602C490968B1FBF3F101EB4101F1
:100A700000E0491E00910029FBD101688B68DB076B
:100A800045D0036C40F20164A34343F480730364D4
:100A90004B685B0505D5036C23F4005343F4805386
:100AA0000364036CDB0404D5436C23F00603436446
:100AB00000E042646FF0220380F83C20174C184A93
:100AC0000B6001684B6823434B60D2F80413C906DE
:100AD00007D0016891420AD18B6813F0405F02D0C1
:100AE00005E000680BE08B6843F080438B60D2F830
:100AF0000413C9060BD400680A49884207D18168EB
:100B000011F0405F03D1816841F080418160002095
:100B100018BD000040420F004400002020000004E7
:100B2000002001400022014090F83510022903D036
:100B30008021416501207047052180F8351000684B
:100B4000016821F001010160002070472DE9F84F94
:100B5000DFF89CE100224FF001084FF0030B4FF04B
:100B60000F0A00BF0B6808FA02F42340A34271D1B8
:100B70004D68022D01D0122D0FD1D5080E695707EF
:100B800000EB8505A9462D6AFF0E0AFA07FCBE4058
:100B900025EA0C052E43C9F820600F795500066838
:100BA0000BFA05FC07F0030726EA0C06AF403743B3
:100BB00007604E68012E05D0022E03D0112E01D001
:100BC000122E0ED18668CF6826EA0C06AF40374356
:100BD000876046680F79A643C7F3001797403743ED
:100BE0004760C4688E6824EA0C04AE402643C660A1
:100BF0004C68E40075D53F4C256845F48045256078
:100C0000246822F00306950704F4804400943A4CCB
:100C10002D0F2644D6F80848DFF8E0C00AFA05F799
:100C2000604524EA070401D100272EE0344FB84282
:100C300001D1012729E0334FB84201D1022724E036
:100C4000314FB84201D103271FE0304FB84202D1E3
:100C500004271AE045E02E4FB84201D1052714E0E1
:100C60002C4FB84201D106270FE02B4FB84201D1DB
:100C700007270AE0294FB84201D1082705E0284F8D
:100C8000B84201D1092700E00A27AF402743754643
:100C9000C6F808784E68DEF80040F60324EA03043C
:100CA00000D51C43124E2C60361D4D683468AD03D0
:100CB00024EA030400D51C430D4F346008374D6807
:100CC0003C68ED0224EA030400D51C43084D3C6057
:100CD0000C354E682C68B60224EA030400D51C4388
:100CE0002C60521C102AFFF43DAFBDE8F88F0000C5
:100CF000003C014044380240003001400000024006
:100D00000004024000080240000C024000100240B3
:100D10000014024000180240001C02400020024063
:100D2000002402400148806870470000380000201D
:100D300002488168027811448160704738000020C1
:100D4000032010B500F08CF8002000F005F800F04A
:100D50003DF8002010BD000010B5002201463620ED
:100D600088B000F05DF8362000F04CF813480168B8
:100D700041F010010160006805A900F01000069024
:100D8000684600F0E9FB00F007FC0D494000002236
:100D90000C4CB0FBF1F10C4840F2E7330460C0E9C1
:100DA0000332491EC0E9011200F018FE10B1012003
:100DB00008B010BD044800F057FEF9E74038024083
:100DC00040420F0000100040B40100200C4882B0E7
:100DD000016841F080510160006800F0805000908F
:100DE0000748001D016841F480410160006800224D
:100DF0000F2100F480400090901E02B000F010B867
:100E000040380240002809DB410900F01F02890038
:100E1000012001F1E0219040C1F80001704700007D
:100E20000E4BF0B41B680D46C3F30223C3F1070653
:100E3000042E00D90426191D072901D2002300E041
:100E4000DB1E012404FA06F19C40491E2940641E61
:100E5000994014402143F0BC01F021BF0CED00E0AB
:100E6000064900F0070210B54FF6FF040868044B6E
:100E7000204040EA02201843086010BD0CED00E05D
:100E80000000FA051848F8B5016841F0805101608A
:100E90000068164C00F080500090206840F48030CC
:100EA0002060FFF73FFF4FF47A76054605E000BF6C
:100EB000FFF738FF401BB0420FD86068C003F7D57A
:100EC000206840F400302060FFF72CFF054606E064
:100ED000FFF728FF401BB04201D90320F8BD60682E
:100EE0008003F5D50020F8BD403802400070004076
:100EF0002DE9F84F04460078DFF824944FF00006FF
:100F00003746C0070ED0D9F8001021F40001C9F807
:100F10000010D9F80010626B1143C9F80010606B23
:100F200000B90126FE4D2068843500030ED5E16B23
:100F3000286820F4401008432860E06BB0F5801F5B
:100F400001D010B102E0012600E0012720684FF433
:100F5000800BC0020CD5216C286820F440000843A7
:100F60002860206C584501D1012601E000B9012715
:100F70002068C10100D50126800666D5E8483830D2
:100F8000016841F0805101600068DFF898A300F02B
:100F900080500090DAF8001041F48071CAF8001017
:100FA000FFF7C0FE804605E0FFF7BCFEA0EB08009F
:100FB00064287DD8DAF80000C005F5D5DFF8608335
:100FC00008F16808D8F8000010F440702AD0218E8B
:100FD00001F44071814225D0D8F80010D8F80020E3
:100FE00021F4407142F48032C8F80020D8F8002083
:100FF00022F48032C8F80020C8F80010D8F80000A9
:10100000C0070FD0FFF78EFE824607E0FFF78AFE8B
:10101000A0EB0A0141F288308142CAD8D8F800001A
:101020008007F3D5206BC0F3012103297ED0D9F8C6
:10103000001021F4F811C9F80010228ED8F8001021
:10104000C2F30B021143C8F800102078C00607D580
:10105000286820F0807028602868A16B0843286009
:101060002188AF488830490405D5626E016821F4B3
:101070004031114301602188090405D5A26E016841
:1010800021F44021114301602168C90305D5E26EB6
:10109000016821F44011114301602168890305D5DD
:1010A000226F016821F4400111430160217800E0C2
:1010B00034E1490605D5626C016821F00301114352
:1010C00001602178090605D5A26C016821F00C01A8
:1010D000114301602188C90505D5E26C016821F042
:1010E0003001114301602188890505D5226D016811
:1010F00021F0C001114301602188490505D5626DC9
:10110000016821F44071114301602188090505D56A
:10111000A26D016821F44061114301602188C90476
:1011200007D5E26D016821F4405100E05FE0114312
:1011300001602188890405D5226E016821F44041AF
:10114000114301602168490205D5A26F016821F0B1
:1011500080611143016021684FF0006A890209D55E
:10116000E26F016821F0006111430160E16F5145B8
:1011700000D1012721680A0700D50127490305D5B9
:10118000626F016821F0407111430160216809021A
:1011900006D5D4F88020016821F080511143016008
:1011A0002168490106D5D4F88420016821F0005156
:1011B000114301602068000106D5D4F88810286822
:1011C00020F00070084328602068C00006D5D4F8DD
:1011D0008C10286820F0806008432860DFF8489170
:1011E000012E0ED02068B0F1007F0AD08FE04F4A68
:1011F000D9F80030104023F4F8120243C9F8002057
:101200001BE7D9F800004E4620F08060C9F80000C6
:10121000FFF788FD804605E0FFF784FDA0EB08009E
:1012200064287BD830680001F6D421783C487C30B3
:10123000C90712D0616B81B9237A62680168D0F85E
:1012400000C09201C1F3014142EA0142CCF30361C3
:1012500042EA016141EA0371016021680A0303D592
:10126000E26BB2F5801F04D0C9021AD5216C594532
:1012700017D16368016894F80CC002689B01C1F340
:10128000014143EA0141C2F3027241EA0C6141EAC1
:10129000027101602968626A21F01F01521E114328
:1012A00029602168C90110D5238A62680168D0F8D5
:1012B00000C09201C1F3036142EA034242EA0162C3
:1012C000CCF3027142EA01710160216889010CD5F9
:1012D0006168228A237B94F808C0890141EA0241AF
:1012E00041EA036141EA0C7101603168B04641F0A6
:1012F00080613160FFF716FD064604E0FFF712FD3E
:10130000801B64280AD8D8F800000001F6D5E7B39E
:10131000D9F800004E4620F0805009E07BE0000044
:10132000083802400070004000380240FFFCFF0F08
:10133000C9F80000FFF7F6FC074604E0FFF7F2FCEF
:10134000C01B642867D83068C0438000F6D5216888
:1013500035480A0301D5E26B1AB1C9021DD5216CCB
:10136000D9B963690168277E02689B01C1F3014115
:1013700043EA0143C2F3027143EA076242EA0171A0
:10138000016029686FF0FF0300E04BE0A26A21F4DE
:10139000F85103EB0222114329602168890212D51A
:1013A000E16F51450FD1238C626901680768920192
:1013B000C1F3036142EA034242EA0162C7F30271E8
:1013C00042EA017101602178090716D56169026856
:1013D000D0F800C08B01277FC2F30362CCF3014138
:1013E00043EA014141EA026141EA0771016028686C
:1013F000E16A20F4403008432860306840F08050B3
:101400003060FFF78FFC044608E000BFFFF78AFC5E
:10141000001B642802D90320BDE8F88F3068C04360
:101420008000F3D40020F7E7883802402DE9F04728
:1014300005000F4663D0444E306800F00F00B842FC
:1014400009D2306820F00F0038433060306800F077
:101450000F00B84253D128683C4C810712D5400791
:1014600003D5206840F4E05020602878000703D5B9
:10147000206840F460402060A968206820F0F000F7
:10148000084320602878C0072AD0304968680839A6
:10149000012810D00968022810D0890700292EDA07
:1014A000216821F0030101432160FFF73BFC8046E6
:1014B00041F288390DE009688903EFE78901EDE71A
:1014C000FFF730FCA0EB0801494502D90320BDE835
:1014D000F0876868216801F00C01B1EB800FEFD153
:1014E000306800F00F00B8420BD9306820F00F00D0
:1014F00038433060306800F00F00B84201D001205E
:10150000E5E72878400705D5E968206820F4E05031
:10151000084320602878000706D52869216821F44F
:10152000604141EAC000206000F056F82168084A96
:10153000C1F30311515CC840064908600020FFF761
:101540000BFC0020C3E70000003C024008380240CA
:101550000C4F0008440000200D4A0F2330B50360F3
:101560004FF4E0540B4B156805F003054560156812
:1015700005F0F0058560156805F4E055C560126852
:1015800004EAD2020261186800F00F00086030BD62
:1015900008380240003C02400449054809680068D8
:1015A000044AC1F38221515CC840704708380240A8
:1015B000440000201C4F00080449054809680068E1
:1015C000044AC1F34231515CC840704708380240B8
:1015D000440000201C4F0008154910B51548096843
:1015E00011F00C0213D04110042A0FD0082A0ED19A
:1015F0000F4C241F2268236802F03F025B0207D5CC
:101600002068C0F38810A0FB010106E0084610BD69
:101610002168C1F38811A1FB00010023FEF76AFED7
:101620002168C1F30141491C4900B0FBF1F010BD34
:10163000083802400024F4002DE9F84F05004FF06F
:1016400000076ED02878DFF82093A9F1040AC007BC
:10165000AAF104044CD0D9F800104846C1F3810126
:10166000012908D00068C0F3810002280AD1DAF805
:101670000000400206D52068800339D5686800283C
:10168000DFD035E06868B0F5803F0BD010B1B0F521
:10169000A02F11D0206820F480302060206820F432
:1016A000802002E0206840F480302060686890B1BB
:1016B000FFF738FB06460AE0206840F480202060EF
:1016C000F0E700BFFFF72EFB801B642872D820686C
:1016D0008003F7D50CE0FFF725FB064605E000BFC9
:1016E000FFF720FB801B6428F0D820688003F7D424
:1016F0002878800742D5D9F80010484611F00C0F21
:1017000008D00068C0F3810002280BD1DAF800008D
:10171000400207D42068800718D5E868012800D166
:1017200014E01EE1E8680028206817D040F00100AE
:101730002060FFF7F7FA064605E000BFFFF7F2FA70
:10174000801B0228C2D820688007F7D52869216845
:1017500021F0F80141EAC00020600FE020F0010014
:101760002060FFF7DFFA064605E000BFFFF7DAFA70
:10177000801B02281ED820688007F7D4287800072D
:1017800029D5794869696C3000298046016812D0F2
:1017900041F001010160FFF7C5FA064605E000BF10
:1017A000FFF7C0FA801B022804D8D8F80000800791
:1017B000F6D510E089E021F001010160FFF7B2FAEF
:1017C000064604E0FFF7AEFA801B02287DD8D8F861
:1017D00000008007F6D4287840076BD5DFF88881B1
:1017E00008F13808D8F80000C0000BD4D8F8001071
:1017F00041F08051C8F80010D8F80000012700F02F
:101800008050009059480168C90512D40168834688
:1018100041F480710160FFF785FA064605E000BFDC
:10182000FFF780FA801B64284FD8DBF80000C00562
:10183000F6D54D4EA868683601280AD008B10528AB
:1018400011D0306820F001003060306820F00400D2
:1018500002E0306840F001003060A868A0B1FFF7F6
:1018600061FA83460CE0306840F004003060F0E735
:10187000FFF758FAA0EB0B0141F28830814268D89B
:1018800030688007F4D50EE0FFF74CFA834607E096
:10189000FFF748FAA0EB0B0141F28830814258D89B
:1018A00030688007F4D42FB1D8F8001021F08051AF
:1018B000C8F80010A869E0B3D9F80010C1F381019D
:1018C00002294ED00228206800E042E020F080701B
:1018D000206003D0FFF726FA05463DE0FFF722FA25
:1018E000064604E0FFF71EFA801B022831D8206864
:1018F0008001F7D4D5E90921DFF874C0D5E90706DE
:1019000095F830304F0895F82C1030430CEB074514
:1019100045EA8212104340EA016040EA0370CAF8C7
:101920000000206840F080702060FFF7FBF905465A
:1019300005E014E0FFF7F6F9401B022809D82068FB
:101940008001F7D50BE000BFFFF7ECF9401B022840
:1019500002D90320BDE8F88F20688001F4D400206C
:10196000F8E70120F6E70000083802400070004068
:101970000000FFFF704770477047000070B590F897
:101980003C20012A24D0134C012580F83C5002222F
:1019900080F83D2002685368A242966802D00E4C3F
:1019A000A24203D14C6823F4700323430C6823F054
:1019B000700389681C435460002326F08006026887
:1019C0003143916080F83D5080F83C30184670BD3E
:1019D000022070BD000001400004014010B5040069
:1019E00003D094F83D0010B107E0012010BD0020A5
:1019F00084F83C00204600F00DF8022084F83D00F9
:101A00002068211D00F042FE012084F83D000020E6
:101A100010BD000008B50068B0F1804F08D105483E
:101A2000016841F001010160006800F001000090D0
:101A300008BD0000403802400A4B022180F83D10EA
:101A400001688A681A40062A06D0B2F5803F03D0A2
:101A50000A6842F001020A60012180F83D1000206E
:101A600070470000070001000168094ACB6843F095
:101A70000103CB60016888681040062806D0B0F5E5
:101A8000803F03D0086840F00100086000207047E4
:101A90000700010070B5044690F83C00012817D0FB
:101AA000324B012584F83C50022084F83D00226826
:101AB0009068184020F47F4090600868502830D02B
:101AC0000DDC20284DD005DC98B310283BD148E030
:101AD000022070BD302844D0402834D139E060283D
:101AE00028D0702806D0B0F5805F2CD0B0F5005F0C
:101AF00029D10AE04A682068D1E9021300F02CFEDF
:101B00002068816841F0770109E04A682068D1E9DE
:101B1000021300F021FE2068816841F48041816059
:101B200011E0CA684968206800F027FE206850214B
:101B300007E016E0CA684968206800F02FFE2068B8
:101B4000602100F012FE002084F83D5084F83C0033
:101B500070BDCA684968206800F00FFE2068402107
:101B6000EFE7226801461046EBE7000088FFFEFF22
:101B7000704770B50446006800250169C9438907AC
:101B800015D4C168C943890711D4EA1E0261012135
:101B90002177206880698007204602D0FFF7E8FFA0
:101BA00004E000F0A7F8204600F0A5F825772068AB
:101BB0000169C943490717D4C168C943490713D408
:101BC00002216FF00402026121772068806910F41D
:101BD000407F204602D0FFF7CBFF04E000F08AF8F8
:101BE000204600F088F8257720680169C943090775
:101BF00016D4C168C943090712D404216FF0080242
:101C0000026121772068C0698007204602D0FFF773
:101C1000AFFF04E000F06EF8204600F06CF8257786
:101C200020680169C943C90617D4C168C943C906F8
:101C300013D408216FF01002026121772068C06977
:101C400010F4407F204602D0FFF792FF04E000F03E
:101C500051F8204600F04FF8257720680169C94304
:101C6000C90708D1C168C943C90704D1891E0161E8
:101C7000204600F041F820680169C943090609D4EB
:101C8000C168C943090605D46FF08001016120468F
:101C9000FFF771FE20680169C943C90509D4C1680D
:101CA000C943090605D46FF4807101612046FFF72E
:101CB00061FE20680169C943490609D4C168C94366
:101CC000490605D46FF040010161204600F01EF87E
:101CD00020680169C94389060BD4C168C9438906D4
:101CE00007D46FF0200101612046BDE87040FFF786
:101CF00043BE70BD7047704700680349884201D1F8
:101D0000FFF716B87047000000100040704770479A
:101D10002DE9F041026804460025D06911689368F6
:101D200010F00F0F5BD003F0010601F490773743FA
:101D300069D0C70707D0CF0505D501271762E26F25
:101D400042F00102E267820708D5DA0706D0276869
:101D500002223A62E26F42F00402E267420708D5CB
:101D6000DA0706D0236804221A62E26F42F0020208
:101D7000E26702070AD501F02002324306D0236849
:101D800008221A62E26F42F00802E267E26F002A5C
:101D900032D0800605D5880603D5216E09B12046CC
:101DA00088472168E06F8968490601D4000725D576
:101DB000204600F091FD20688168490619D58168A8
:101DC00021F040018160E06E98B11A490165E06E32
:101DD000FEF7AAFE00280FD0E06E016D06E0830634
:101DE00011D58B060FD5216E12E02046BDE8F041DB
:101DF00008472046FFF78BFFBDE8F0812046FFF73C
:101E000086FFE567F8E7030605D50B0603D5616E87
:101E10000029EAD1F0E74006EED54806ECD5136874
:101E20002021204623F0400313606167656600F0BF
:101E300040F9E1E7C528000810B5040002D0606F42
:101E400010B107E0012010BD002084F8700020468A
:101E500000F026F8242060672068016821F0010165
:101E60000160204600F0A2FD0128ECD0606A10B1AC
:101E7000204600F0A5FC2068416821F490414160B3
:101E80002068816821F02A0181602068016841F0A2
:101E9000010101602046BDE8104000F0F5BC0000E3
:101EA00010B586B0044614216846FEF76DFA16494F
:101EB0002068884226D11548016841F480210160DC
:101EC000006800F48020059010481038016841F047
:101ED0000801016000680221002200F0080005905E
:101EE000032307244FF440708DE81F00084869461B
:101EF000FEF72CFE002205212720FEF791FF272068
:101F0000FEF780FF06B010BD004800404038024098
:101F1000000C024070B5836F202B4BD1B9B1B2B128
:101F200090F87030012B45D08368012680F87060EE
:101F30000024416535030466AB42A0F85820A0F8A0
:101F40005A204FF0FF0107D1026912B126E00120AB
:101F500070BD40F2FF1121E04FF07F02E3B1B3F119
:101F6000805F1ED0A0F85C402221C46781670168B1
:101F70008A6842F001028A608168A94201D1016940
:101F8000B1B10D49016680F870400068016841F404
:101F900090710160002070BD036933B9A0F85C1036
:101FA000E2E7016909B13F21F8E7A0F85C20DBE72F
:101FB0000249E7E7022070BD53290008F92800080C
:101FC0000B4901220B4810B5FFF7A4FF0848017820
:101FD00072290CD1806802F04FFF002807D0064913
:101FE0004FF080500860BFF34F8FBFF36F8F10BD6D
:101FF000000000203401002004ED00E02DE9F8434A
:102000000446406F1F4616460D4620284FD1CDB1DD
:10201000C6B194F87000012849D0012284F87020DC
:1020200021214FF00008C4F87C806167FEF77AFE3A
:102030008146A068A4F85060A4F85260B0F5805FB3
:1020400003D004E00120BDE8F883206910B12E46DA
:10205000002510E000260EE08021204600F0D0FD93
:10206000B8B9C6B116F8010B21688862B4F85200FD
:10207000401EA4F85200B4F852004B464FF0000244
:1020800000970028E8D14FF04001204600F0B8FD4D
:1020900038B10320D7E735F8020B2168C0F30800F8
:1020A000E3E720216167002084F87080CBE70220FD
:1020B000C9E77047FEE70000144DA6B0A86802F01B
:1020C000B1F94FF0FF34684611A1FEF77BF920A16A
:1020D0006846FEF764F96846FEF76DF982B21D485E
:1020E00023466946FFF78AFF1BA16846FEF76AF997
:1020F0006846FEF760F982B2164823466946FFF744
:102100007DFFA86802F08EF9DDE7000000000020E6
:102110002F6E456E746572656420494E5055544368
:10212000415054555245205461736B0A2041626FEF
:10213000756E7420746F2041435155495245207487
:1021400068652053656D6170686F7265200A0000D4
:102150000A0A0000340100204C656176696E672030
:10216000494E505554434150545552452054617383
:102170006B0A200A00000000194CA6B0A06902F00A
:1021800051F901254FF0FF374FF4FA76606888B9AE
:1021900014A16846FEF716F920A16846FEF7FFF87D
:1021A0006846FEF708F982B221483B466946FFF7C8
:1021B00025FF6560304602F011F860680228E5D11D
:1021C0001CA16846FEF7FEF86846FEF7F4F882B2F6
:1021D00017483B466946FFF711FF6560D6E70000E8
:1021E00000000020456E7465726564204C574950AC
:1021F000205461736B0A2041626F756E7420746F96
:102200002041435155495245207468652053656DFE
:102210006170686F72650A0A0000000020536574DF
:1022200074696E6720755254552049500A0A00009F
:102230003401002053656E642044617461200A20DB
:102240004C656176696E67204C5749502054617324
:102250006B0A0A20000000001D4C0023A6B01A469D
:102260001946206A02F06AFA4FF0FF35206A2946C3
:1022700002F01CFBA06902F05DF816A16846FEF7AB
:10228000A1F821A16846FEF78AF86846FEF793F8A0
:1022900082B21E482B466946FFF7B0FE1CA1684675
:1022A000FEF790F86846FEF786F882B217482B468C
:1022B0006946FFF7A3FE0023206A1A46194602F07A
:1022C0003DFAA06902F0AEF8E06802F0ABF8CDE7A5
:1022D00000000020456E7465726564204D4F4442D5
:1022E0005553205461736B0A2041626F756E7420E0
:1022F000746F2041435155495245207468652053FD
:10230000656D6170686F72650A0A00003401002013
:102310004C656176696E67204D4F44425553205499
:1023200061736B0A200A0A00254C0226A6B04FF002
:10233000FF354FF4FA7741F288382946E06902F018
:10234000B5FA206A294602F0B1FAA06901F0F2FF5D
:102350001CA16846FEF736F86846FEF72CF882B2F4
:1023600026482B466946FFF749FE25A16846FEF739
:1023700029F86846FEF71FF882B220482B466946C6
:10238000FFF73CFE3846666001F028FF0023206A14
:102390001A46194602F0D2F90023E0691A46194696
:1023A00002F0CCF9A06902F03DF8404601F016FFBA
:1023B000206901F0BFFFE06801F0BCFFBDE700004D
:1023C00000000020456E7465726564204D515454C0
:1023D000205461736B0A2041626F756E7420746FB4
:1023E0002041435155495245207468652053656D1D
:1023F0006170686F72650A0A0000000034010020F5
:102400004C656176696E67204D5154542054617358
:102410006B0A200A0A0000007FB517480024012536
:102420001449009401942A04029403941303016054
:102430004FF03061C0E901240461846180F82040DC
:10244000C561C460C0E90A1380F830404461FEF7FA
:102450008FFA08B1FEF70EF903206946CDE90005B1
:1024600005480294FEF708F9002801D0FEF702F9AA
:102470007FBD000000200140AC0000200D4808B5E1
:10248000016841F080010160016801F08001009164
:10249000016841F001010160016801F00101009152
:1024A000016841F008010160006800F00800009038
:1024B00008BD00003038024010B588B0174800242D
:1024C00042F62F224FF0804142F20F7300940194A4
:1024D0000294039404940594069480E81600C0E9DD
:1024E00003348461FFF77AFA08B1FEF7C3F84FF4BA
:1024F0008050009009486946FFF7CCFA08B1FEF712
:10250000B9F820200490054804A90694FFF736FA8C
:10251000002801D0FEF7AEF808B010BDF40000208E
:102520000D48002110B50B4C0C224FF4E133046030
:10253000C0E90131C160C0E904128161C161016279
:102540004162FFF779FC002803D0BDE81040FEF798
:1025500091B810BD0048004034010020FEE77047EC
:10256000502010B572B680F31188BFF34F8FBFF3C0
:102570006F8F62B602F0DAFA18B104494FF080505A
:102580000860002080F3118810BD000004ED00E019
:1025900030B5B7B0342124A8FDF7F6FE142131A8D8
:1025A000FDF7F2FE90216846FDF7EEFE1D4801683A
:1025B00041F080510160006800F0805036901A4868
:1025C000016841F44041016000680123022400F4E5
:1025D0004040369098050421D822CDE92A402CA805
:1025E0001D0480E816002F9424A8CDE92435FFF7B8
:1025F00023F8FEF747FCE1024FF4A05031ABCDE9E0
:1026000034010F22002583E83400072131A8FEF7AA
:102610000DFFE001139500906846FEF769FC37B0A6
:1026200030BD00004038024000700040104A30B514
:102630001048146800210F4B44F4700414600833F0
:1026400005680D4A0D4C45F00105056019600368E9
:10265000051D1340074A03600C322C600568E30532
:10266000034C25F480250560803C1160236030BD5B
:1026700088ED00E000380240FFFFF6FE1030002435
:102680000148FFF776BA0000B4010020F0B5274BEF
:102690004FF0804E264D02689842264E264F274C1A
:1026A00009D0704507D0A84205D0B04203D0B84247
:1026B00001D0A04205D1D1F804C022F070024CEA4A
:1026C000020298421BD0704519D0A84217D0B042E0
:1026D00015D0B84213D0A04211D0194DA8420ED047
:1026E000184DA8420BD0184DA84208D0174DA8424B
:1026F00005D0174DA84202D0164DA84203D1CD688F
:1027000022F440722A434D6922F080022A4302607B
:1027100098428A68C2620A68826201D0A04201D1EE
:102720000969016301214161F0BD00000000014021
:102730000004004000080040000C0040000401407C
:1027400000400140004401400048014000180040A2
:10275000001C00400020004042EA032283680A4334
:1027600023F47F410A4382607047826822F070023E
:102770000A4342F007018160704710B5036A046A9A
:1027800023F00A0324F00104046284690B4324F05B
:10279000F00141EA02118161036210BD10B5036AC4
:1027A00023F0100303628369046A23F4704324F066
:1027B000A00443EA0232826144EA0111016210BDC1
:1027C00090F82410C90706D00168836A4A6822F489
:1027D00000321A434A6090F82410890706D5016830
:1027E000C36A4A6822F480321A434A6090F824107F
:1027F000490706D50168036B4A6822F480221A4310
:102800004A6090F82410090706D50168436B4A68AE
:1028100022F400421A434A6090F82410C90606D5F3
:102820000168836B8A6822F480521A438A6090F8A8
:102830002410890606D50168C36B8A6822F4005209
:102840001A438A6090F82410490611D50168036C78
:102850004A6822F480121A434A60016CB1F5801F65
:1028600006D10168436C4A6822F4C0021A434A60E8
:1028700090F82410090606D50168826C486820F497
:10288000002010434860704738B500250446C567EE
:10289000FEF748FA03462068006800070BD56FF082
:1028A0007E400090002220464FF4001100F0A8F96D
:1028B00008B1032038BD2020606784F87050A067FD
:1028C000002038BD10B5806B0021A0F85A10A0F888
:1028D0005210FFF71CFA10BD10B50168202200232A
:1028E0000C6824F490740C6001688C6824F0010476
:1028F0008C608267036610BD10B5816FB0F85C20F4
:102900002229016804D0886940F00800886110BD60
:10291000496A436D11401980416D891C4165B0F8C9
:102920005A10491EA0F85A10B0F85A100029EED1DA
:102930000168202200230C6824F490740C60016864
:102940008C6824F001048C6082670366FFF738FB13
:1029500010BD10B5816FB0F85C202229016804D049
:10296000886940F00800886110BD496A436D1140D4
:102970001970416D491C4165B0F85A10491EA0F804
:102980005A10B0F85A100029EED101682022002315
:102990000C6824F490740C6001688C6824F00104C5
:1029A0008C6082670366FFF70BFB10BD2DE9F041D9
:1029B00004468068DFF818C2864F2368D4E90452C1
:1029C000E16928431E6800250A438349104306EA4B
:1029D0000C0606431E604FF400422068E668436818
:1029E00023F44053334343602368A669206AD3F835
:1029F00008C030432CF4306606439E602068B8421D
:102A00000AD1086810F0030052D001287BD00228B8
:102A10007AD003286ED186E0704B98420AD10868BC
:102A200010F00C0079D004287BD0082877D00C282F
:102A300060D178E06A4B98420AD1086810F0300003
:102A40006BD010286DD0202869D0302852D16AE090
:102A5000644B98420AD1086810F0C0005DD040284D
:102A60005FD080285BD0C02844D15CE05E4B9842A8
:102A70000DD1086810F440704FD0B0F5807F50D071
:102A8000B0F5007F4BD0B0F5407F33D14BE0574BD2
:102A900098420FD1086810F4406009D0B0F5806FFB
:102AA0003FD0B0F5006F3AD0B0F5406F22D13AE098
:102AB000012120E04E4B98420DD1086810F440509F
:102AC0002BD0B0F5805F2CD0B0F5005F27D0B0F5EB
:102AD000405F0FD127E0474B98420BD1086810F4B4
:102AE00040401AD0B0F5804F1BD0904217D0B0F5BF
:102AF000404F18D01021E0694FF6EF76904238D160
:102B000009295DD202E00CE009E006E0DFE801F00F
:102B10000D1027582A5858582D000021EBE70221A4
:102B2000E9E70421E7E70821E5E7FEF735FD01E0E5
:102B3000FEF742FD0146D4F80400490001EB5001C4
:102B4000B1FBF0F080B2A0F11001B14238D84FF6DD
:102B5000F0732168C0F342021840104324E0264974
:102B60006068EBE7FEF738FDE4E760684FF480311A
:102B7000E4E7092924D2DFE801F0050819231C2322
:102B800023231F00FEF708FD01E0FEF715FD0146B7
:102B9000D4F8040001EB5001B1FBF0F080B2A0F1D9
:102BA0001001B1420CD82168C8600AE0134960687E
:102BB000F0E7FEF711FDEAE7606802EB5001EBE792
:102BC00001250020206660662846BDE8F0810000EF
:102BD000F369FFEF001001409038024000440040CC
:102BE00000480040004C00400050004000140140EC
:102BF00000780040007C00400048E8010024F40018
:102C00002DE9F041984617460E460446069D08E019
:102C1000681C06D0FEF786F8A0EB0800A8420BD887
:102C200055B12068C06936EA000017D00020B842CC
:102C3000EED00020BDE8F0812168202000220B6842
:102C400023F4D0730B6021688B6823F001038B6041
:102C50006067A067032084F87020EBE70120E6E7B7
:102C60000148FFF755B8000034010020FEE703B427
:102C700001984100009850EAC12018BF04204A0D75
:102C800018BF40F0010040F2FF72B2EB515F08BF85
:102C900040F00200012808BF052002B07047090774
:102CA00000284FEA116104DB00F1E02080F80014F5
:102CB000704700F00F0000F1E02080F8141D70470D
:102CC0002DE9F04D2DED040B2DED0A8B9AB0DDE9C9
:102CD0002550279CDDF890A025F0004624F0004800
:102CE000BAF1000F14BF0121002101EB4502F849A0
:102CF00053184A1093422AD3002814BF01230023FB
:102D000003EB44030B44F3498B4220D358EA000100
:102D10009FEDF19B72D0DFF8C8B35D4503D1BAF1E6
:102D2000000F05D184E0BAF1000F08BF002100D0E8
:102D3000012101EB450111F5001F08D8002814BF3F
:102D40000121002101EB440111F5001F0BD99DED7C
:102D5000261B9DED240B1AB0BDEC0A8B04B0BDE818
:102D6000F04D00F071BC0027002DBCBFDD49884547
:102D700021DADD498845A8BF02271CDAC3451ADCE1
:102D8000DA4901EB2851142908DDC1F1340220FA97
:102D900002F101FA02F282420DD108E058B9C1F104
:102DA000140228FA02F101FA02F2424503D101F0BD
:102DB0000101C1F1020756EA0A0120D1002C1EDAF6
:102DC000002D18BF022F01D0012F0AD0022000F0E1
:102DD00073FC1AB0BDEC0A8B04B0BDE8F04D00F0F6
:102DE00023BC022000F068FC00F01EFCB1EE400B9A
:102DF0001AB0BDEC0A8B04B0BDE8F08D18E09FED71
:102E0000BCAB9FEDBD8B00287DD1B64880451CD161
:102E100005F1804010F5801008BFBAF1000F07D00F
:102E2000B34508DC002CA8BF9DED260BE0DA07E0D7
:102E3000B0EE490BDCE7002CB8BF9DED260BD5DBCF
:102E4000AF48784490ED000BD2E7D84548D1002C2C
:102E500043DA2EB186423AD1BAF1000F3DD126E0D5
:102E6000BAF1000F13D0022000F026FC00F0FCFBAA
:102E70008DED020B9DED240B8DED000B10EE900AF5
:102E8000039961F31E0003909DED020BB0E78DEDF9
:102E900002AB9DED240B1AEE901A10EE900A8DED08
:102EA000000B61F31E0003909DED020BA0E78DED7A
:102EB000028B9DED240B18EE901A10EE900A8DED0A
:102EC000000B61F31E0003909DED020B90E704DA06
:102ED0009DED241B89EE010B8AE79DED240B87E70E
:102EE00086421ADAB4F1804F04BF9DED240B20EE28
:102EF000000B3FF47DAFA4F10050B0F1FF500CD1B6
:102F0000002D0ADB00E008E09DED240B51EC100BD6
:102F100001F03EF841EC100B6AE79DED240B51ECFB
:102F2000100B00F0CFFBBAF1000FCDE90E0140D13C
:102F30009FED750B46B3A6F1E040B0F17F600ED077
:102F40005E4536D1002D00DA97B3022F0CBF012069
:102F50004FF0FF3000EE100AB8EEC00B48E7002D2E
:102F600001DD002C0DDA002D01DD002C1DDB002D14
:102F700014DA002C12DB012F08BF9FED650B3FF424
:102F800037AFB0EE4A0B33E7022F18BF002D0CD03D
:102F9000012F0AD1002DFFF62BAF06E0002DB8BFA0
:102FA000002C06DA012F3FF423AFB0EE480B1FE7E9
:102FB00019E0012000EBE57050EA070113D0791EFB
:102FC000B0EE498B084308BF9FED538B5448002552
:102FD00080457ADD53495448884514DDB0420DDB05
:102FE000002C19DB2CE0012000F066FB1AB0BDECD0
:102FF0000A8B04B0BDE8F04D00F02ABBB34502DCFB
:10300000002C09DC1CE0864202DA002C18DA03E00E
:103010005E4528DD002C13DD022000F04DFB00F0A2
:1030200023FB8DED020B28EE0A0B8DED000B10EE4D
:10303000900A039961F31E0003909DED020BD7E601
:10304000022000F039FB00F01BFB10EE901A18EE86
:10305000900A8DED020B8DED008B61F31E00039045
:103060009DED020BC4E69DED0E0B9FED313B30EE66
:10307000490B8DED040B20EE002B9DED041B9FED05
:103080002E0B01EE430B9DED043B9FED2D1B03EE3C
:10309000401B9DED040B9FED2E3B22EE012B9FED7F
:1030A0002A1B20EE011B20EE030B9FED2B3B02EEB3
:1030B000430B31EE002B8DED022B02959DED022B83
:1030C00032EE411B30EE411B21E149E000000000DF
:1030D000FFFF1F00FFFF0F00000000000000F03F97
:1030E0000000F03F0000F07F0000404301FCFFFFC4
:1030F000000000000000F07F000000000000000061
:103100006A210000000000000000000000000080B4
:10311000000000000000F0FF000000000000F0BF11
:103120000000E0410000F043FFFFEF3F000000001F
:10313000000000000000D03F555555555555D53F6E
:10314000000000000000E03F000000604715F73F6E
:1031500044DF5DF80BAE543EFE822B654715F73F0A
:103160000020B6F5801F0BDA9DED0E0B9FEDEC1BDA
:103170006FF0340020EE010B10EE906A8DED0E0B17
:10318000E94A00EB2650C6F31301A0F2FF3741F0E5
:103190007F6040F040509142D8BF002408DDE34AF0
:1031A0008A42C8BF012403DC0024A0F580107F1CE4
:1031B000DF49794401EBC4010F9091ED001B9DEDB7
:1031C0000E2B9DED0E0BDB4931EE023B30EE410B39
:1031D00089EE032B20EE02AB8DED02AB7944029514
:1031E00091ED003B4FF0005141EA600000EB84405C
:1031F0008DED043B00F5002005909DED043B9DED19
:10320000044B2AEE0ACB33EE411B9DED0E3BCA4820
:10321000062133EE411B9DED023B03EE440B03EE12
:10322000410B20EE02BBB0EE4C0B784400F0C4F929
:103230002CEE0C1B20EE010B9DED021B31EE0A1B48
:103240000BEE010B9DED021B21EE011B9FEDBC2B34
:1032500031EE023B33EE003B8DED043B04959DEDDA
:10326000043B33EE422B32EE411B30EE412B9DED01
:10327000020B9DED041B20EE011B9DED040B2BEEBC
:10328000000B02EE0A0B31EE002B8DED022B0295A6
:103290009DED022B32EE411B30EE410B9DED021BEA
:1032A0009FEDA92B21EE021B9DED022B9FEDA83B6C
:1032B00022EE032B9FEDA83BA94800EE032B784498
:1032C00000EBC40090ED000BA64832EE000B02EEBE
:1032D000107AB8EEC22B8DED042B31EE003B784412
:1032E00000EBC4009DED044B90ED002B33EE023B50
:1032F00033EE043B8DED023B02959DED023B33EE38
:10330000443B33EE422B32EE411B30EE411B9DED30
:10331000260B954A8DED000B00959DED260B9DED3E
:10332000002B30EE420B9DED022B20EE020B9DEDAB
:10333000262B02EE010B9DED001B9DED022B21EED5
:10334000021B8DED021B30EE011B11EE900A11EEF7
:10335000101A8DED001B904224DB821A11430ED10E
:103360009FED831B9DED002B9DED023B30EE011B7D
:1033700032EE432BB4EEC21BF1EE10FA26DD022032
:1033800000F09AF900F070F910EE901A18EE900A19
:103390008DED020B8DED008B61F31E0003909DED12
:1033A000020B25E5744B20F000429A420ED3734A7B
:1033B000024411437FF444AE9DED022B31EE421BDB
:1033C000B4EEC01BF1EE10FABFF63AAE20F00041A9
:1033D0006B4A6C4B002402EB21529942D8BF9DED01
:1033E000021B27DD511C4FF4801222FA01F1014427
:1033F000654BC1F30A527B44A2F2FF3293ED001BEE
:10340000624B8DED041BD34021EA0303C1F313018A
:1034100041F48011C2F1140221FA02F4059300284C
:10342000B8BF64429DED021B9DED042B31EE421BA3
:103430008DED021B30EE011B8DED041B04959DEDFF
:10344000041B9FED532B9DED023B21EE021B9DEDD6
:10345000042B32EE432B30EE420B9FED4F2B20EE30
:10346000020B9DED042B9FED4E3B4F48052102EED4
:10347000030B31EE002B8DED002B32EE411B30EEB5
:1034800041AB9DED000B20EE000B8DED040B78445D
:1034900000F092F89DED001B9DED042B02EE401B09
:1034A0008DED021B9DED000B20EE010B9FED402BDF
:1034B00031EE422B80EE021B9DED002BB0EE4A0B4D
:1034C00002EE0A0B31EE400B9DED001B30EE410B7E
:1034D00039EE400B10EE900A8DED000B00EB04501E
:1034E00001150029C8BF019013DC224651EC100BD6
:1034F000FCF790FFFFF7BBFB042808BF00F0C0F803
:1035000022469DED000B51EC100BFCF783FFCDE93B
:1035100000019DED000B28EE000B69E400000000A7
:1035200000000000000040438E9803007AB60B00B4
:10353000721D0000D01D00002A1D000000000000C8
:103540000000000000000840000000E009C7EE3F56
:10355000F5015B14E02F3EBEFD033ADC09C7EE3FE8
:10356000861C0000561C0000000090400000000077
:10357000FE822B654715973C00CC904000346F3F8E
:1035800001FCFFFF0000E03FB61B0000FFFF0F0043
:1035900000000000432EE63FEF39FAFE422EE63FE0
:1035A000396CA80C615C20BEF61A00000000000017
:1035B0000000000000000040491E00EBC102B0EE18
:1035C000401B92ED000B31F006020DD0491E00EBBE
:1035D000C102B0EE403B92ED002B31F00602B0EE9E
:1035E000420B03EE010BF1D1022914D004290AD0B9
:1035F000062918BF704790ED0A2B00EE012B90EDC5
:10360000080B02EE010B90ED062B00EE012B90ED66
:10361000040B02EE010B90ED022B00EE012B90ED5E
:10362000000B02EE010B70479FED031B9FED042B77
:1036300081EE020B70470000000000000000F03F28
:10364000000000000000000030EE010B7047000099
:103650009FED031B81EE010B70470000000000008E
:1036600000000000000000009FED030B20EE000BA7
:103670007047000000000000000000000000007023
:103680009FED030B20EE000B7047000000000000D0
:10369000000000000000001002E008C8121F08C16E
:1036A000002AFAD170477047002001E001C1121FC3
:1036B000002AFBD1704700000149086070470000F4
:1036C000A800002082B0CDE9000121F00040019067
:1036D0009DED000B02B051EC100B70471CB5FDF7CF
:1036E0002FFBFEF755FFFEF7C9FEFEF719FFFEF7A9
:1036F00093FEFEF7E1FE4F48FEF79EF94E48FDF7B8
:103700009BF94E4901224E48FEF704FC002101209E
:1037100000F080FF494C00212062012000F07AFF78
:1037200000216062012000F075FF0021A0620120ED
:1037300000F070FF0021E061012000F06BFFE0620B
:103740004FF47A75206A002864D029222B463DA1C7
:103750003B48FEF753FC606A2B464FF0640200289A
:103760005CD043A13648FEF749FCA06A2B460028EE
:1037700056D029224BA13248FEF740FCE0692B4687
:10378000002850D0292252A12D48FEF737FCE06ACC
:103790002B4600284AD0322257A12948FEF72EFC9A
:1037A00026490520002308318022CDE90001614827
:1037B0005CA101F081F92149022000230C31802213
:1037C000CDE900015E485CA101F076F91B490320B8
:1037D000002310318022CDE900015B4859A101F09E
:1037E0006BF916490120002314318022CDE9000134
:1037F000584856A101F060F91049042000231831FF
:103800008022CDE90001564853A101F055F900F09E
:10381000D1FDFEE764231C2252A199E759A1A1E73B
:103820001C2261A1A7E71C2266A1ADE71C226CA1A6
:10383000B3E70000F4000020AC00002000000020EE
:10384000340100204D6F6442757353656D205365DC
:103850006D6170686F726520437265617465642084
:103860007375636365737366756C6C790A0A00001F
:10387000496E7075744361707475726553656D201F
:1038800053656D6170686F72652043726561746520
:1038900064207375636365737366756C6C790A0A6B
:1038A000000000004C57495053656D2053656D6111
:1038B00070686F726520437265617465642073750A
:1038C000636365737366756C6C790A0A00000000A7
:1038D00041444353656D2053656D6170686F726537
:1038E00020437265617465642073756363657373E7
:1038F00066756C6C790A0A0053656E64696E67536D
:10390000656D2053656D6170686F726520437265E7
:1039100061746564207375636365737366756C6C3D
:10392000790A0A00494E5055544341505455524566
:1039300000000000B92000084D4F444255530000DC
:103940005922000841444300AD0500084D5154542C
:1039500000000000292300084C57495000000000D7
:1039600079210008556E61626C6520746F20437286
:1039700065617465204D6F6442757353656D0A0A05
:1039800000000000556E61626C6520746F20437208
:103990006561746520496E707574436170747572E9
:1039A0006553656D0A0A0000556E61626C6520748E
:1039B0006F20437265617465204C57495053656DA3
:1039C0000A0A0000556E61626C6520746F204372B4
:1039D000656174652041444353656D0A0A00000027
:1039E000556E61626C6520746F2043726561746509
:1039F0002053656E64696E6753656D0A0A000000A6
:103A00002DE9F041184C0F46054666692068001DF7
:103A100000F0F3FA38B922680121A06992F82C204D
:103A200091408843A061681C07D137B12168BDE887
:103A3000F0410E48091D00F019BB20683544B5421D
:103A40004560216805D2A068091DBDE8F04100F07D
:103A5000F5BA6068091D00F0F1FA206B854200D2CA
:103A60002563BDE8F081000048000020D00200205E
:103A70002DE9F041054600F005FB2E4C2E4F206944
:103A8000401C2061206810B1E06940B32DE0256042
:103A90002069012829D1002606EB860007EB80006B
:103AA00000F0BEFA761C072EF6D323488C3000F0C7
:103AB000B7FA2148A03000F0B3FA1F48B43000F044
:103AC000AFFA1D48C83000F0ABFA1B48DC3000F0FC
:103AD000A7FA19488C3060601430A06005E0E86AED
:103AE0002168C96A814200D825600120E16A491C29
:103AF000E162E96AA26988401043A06101EB81009C
:103B0000291D07EB800000F0B1FA00F0DFFAE06950
:103B100000280CD02068E96AC06A884207D20749A9
:103B20004FF080500860BFF34F8FBFF36F8FBDE839
:103B3000F081000048000020F401002004ED00E0C6
:103B40002DE9F041856B1746026C0446002682B1D0
:103B5000C7B1E068FCF7FFFBE168206C2268091A36
:103B6000E160914202D26168081AE060022F16D02B
:103B700017E02068A8B9606801F03EF8064600200A
:103B800060600EE0A068FCF7E6FBD4E90110226C4F
:103B90001044A060884204D32068A06001E005B111
:103BA0006D1E6D1CA5633046BDE8F08110B504465E
:103BB000006B00F0A1FA2046BDE8104000F09CBA6E
:103BC00011484FF4705110B5420706D00E49C01D80
:103BD00020F00700411AC1F570510C4C002301443C
:103BE0000839A4F1100221F00701C4E900030C1AFE
:103BF00011604B600B60C0E9001494604FF000410D
:103C00005460D16010BD0000E40200209400002048
:103C1000144E4FF08058144CDFF85090A6F1C807AE
:103C200012E000BF00F02EFAF068C568281D00F011
:103C3000E4F92069401E2061E068401EE06000F069
:103C400045FA2846FFF7B2FFE0680028EAD1386855
:103C50000128F9D9C9F80080BFF34F8FBFF36F8FE8
:103C6000F2E70000BC0200204800002004ED00E064
:103C70002DE9F0479A4681466FF00303DDE9098498
:103C800003EB8202089D206B104420F007067007AA
:103C900009D0502072B680F31188BFF34F8FBFF365
:103CA0006F8F62B6FEE723180A5C83F834200A5C43
:103CB00012B1401C1028F6D3002784F84370072D5A
:103CC00000D30625E562201DC4E9115700F0B3F9C1
:103CD00004F1180000F0AFF9E764C5F10700A06136
:103CE00084F850705246246149463046646200F0C0
:103CF00037F9B8F1000F206001D0C8F80040BDE8E6
:103D0000F087000030B5114900E011460A68824290
:103D1000FBD34B685C18844203D1446808462344B3
:103D20004B6043681D18954209D1084C103C24682B
:103D3000A24209D052681A4442600A6812680260BE
:103D4000814200D0086030BD0460F9E79400002093
:103D500010B5044600F096F9A06B28B15FF000049E
:103D600000F0B4F9204610BD0124F9E70648416887
:103D7000096829B14168C968C96849680163704721
:103D80004FF0FF31FAE70000480000200A48406881
:103D9000401C4FF0500072B680F3118805D0BFF37D
:103DA0004F8FBFF36F8F62B6FEE7BFF34F8FBFF346
:103DB0006F8F62B6FEE700009C00002000280146DD
:103DC0004FF000000CD00B4B4A699A4207D1896A28
:103DD000A3F12802914202D0002900D101207047AE
:103DE000502072B680F31188BFF34F8FBFF36F8FEF
:103DF00062B6FEE7D00200202DE9F041044600F053
:103E000041F994F9455004F1240609E0606A48B18B
:103E1000304600F091FF08B100F010FA6D1E6DB24F
:103E2000002DF3DC4FF0FF3684F8456000F04EF9CA
:103E300000F028F994F9445004F1100709E02069D2
:103E400048B1384600F078FF08B100F0F7F96D1E70
:103E50006DB2002DF3DC84F84460BDE8F04100F061
:103E600035B900002DE9F0410027044600F03AFB87
:103E7000344E306808B9FFF7A3FEF06804424FD112
:103E8000E4B30834600710D004F00700C0F1080064
:103E90000444600709D0502072B680F31188BFF344
:103EA0004F8FBFF36F8F62B6FEE73CB370688442FA
:103EB00036D82448103001460D6801E028460D46EA
:103EC0006968A14202D229680029F7D131688D4280
:103ED00026D007682968016008376868011B102927
:103EE00011D9281942070AD0502072B680F31188E0
:103EF000BFF34F8FBFF36F8F62B6FEE710E04160F4
:103F00006C60FFF7FFFE69687068401A7060B26805
:103F1000904200D2B0600020F2681143C5E9000170
:103F200000F046FF780709D0502072B680F3118860
:103F3000BFF34F8FBFF36F8F62B6FEE73846BDE821
:103F4000F0810000840000200449086818B1086866
:103F5000826C521C82640868704700004800002090
:103F600070B5041F094E231F4FF0807521F0010129
:103F700025601C1F1960A0F120010B1F266044382A
:103F80000A606FF002051D6070BD00008D3D0008E5
:103F900000B541EC100B2DED028B83B0B1EEC08B60
:103FA00018EE100A18EE901A8DED008B002818BF3D
:103FB0000120084320F00040C0F17F6000F1E040A4
:103FC000C00F14D010EE101A10EE900A8DED000BF9
:103FD000002918BF0121084320F00040C0F17F6094
:103FE00000F1E040C00F04BF0120FFF765FB51EC7A
:103FF000180B03B0BDEC028B00BDD0E901320169A2
:104000009A60D0E901235A604A68824201D18268ED
:104010004A60002202610868401E08600868704714
:104020004FF0FF3300F108010022C0E901130260E4
:10403000C1600161704700210161704730B50B68B4
:104040005A1C02D000F1080202E0026904E0224694
:10405000546825689D42FAD953684B6099608A601C
:10406000516008610168491C016030BD42684A60C6
:1040700093688B6093685960916008610168491C7E
:1040800001607047502072B680F31188BFF34F8FE4
:10409000BFF36F8F0B4962B64868401C4860012827
:1040A0000ED10948006810F0FF0F09D0502072B6F9
:1040B00080F31188BFF34F8FBFF36F8F62B6FEE7B7
:1040C000704700009C00002004ED00E009494868AA
:1040D00028B1401E486001D180F3118870475020FC
:1040E00072B680F31188BFF34F8FBFF36F8F62B644
:1040F000FEE700009C00002070B500282BD0164D74
:10410000A0F108046068E968084209D1502072B63D
:1041100080F31188BFF34F8FBFF36F8F62B6FEE756
:1041200022684AB1502072B680F31188BFF34F8FD6
:10413000BFF36F8F62B6FEE78843606000F0D2F98C
:1041400060686968084468602046FFF7DBFDBDE8E9
:10415000704000F02DBE70BD840000204FF0E020C4
:10416000002101614FF47A728161072303490968D4
:10417000B1FBF2F1491E4161036170474400002028
:1041800010B5FCF7A1F81349102810D300F1E02076
:104190000A7890F8F003904209D2502072B680F36A
:1041A0001188BFF34F8FBFF36F8F62B6FEE70A48E7
:1041B0008968006800F4E060884209D9502072B62E
:1041C00080F31188BFF34F8FBFF36F8F62B6FEE7A6
:1041D00010BD00009C0000200CED00E0020010B5B6
:1041E00016D01048806B48B1502072B680F3118809
:1041F000BFF34F8FBFF36F8F62B6FEE700F072F927
:1042000000211046FFF7FCFB00F0D2FD002807D18B
:1042100005494FF080500860BFF34F8FBFF36F8F99
:1042200010BD00004800002004ED00E002498A6A49
:10423000026049694160704748000020014901203F
:10424000486270474800002010B50C4650B10A493A
:1042500009681831FFF7F2FE2046BDE81040012141
:10426000FFF7CEBB502072B680F31188BFF34F8F9B
:10427000BFF36F8F62B6FEE74800002070B50028DC
:10428000044651D0A26CB2B1606C884200D30146A2
:10429000E06A884248D0012A46D1244D2A689442D7
:1042A00013D1502072B680F31188BFF34F8FBFF344
:1042B0006F8F62B6FEE7502072B680F31188BFF3AD
:1042C0004F8FBFF36F8F62B6FEE7A269E162002AEB
:1042D00002DBC1F10701A161154E00EB80006169AD
:1042E00006EB800081421FD1201DFFF786FE0028CB
:1042F0004FF001000AD1E16A01EB810256F8222059
:1043000022B9AA6900FA01F18A43AA61E16AAA699D
:1043100088401043A86101EB8100211D06EB80005D
:10432000BDE87040FFF7A2BE70BD0000480000204D
:10433000F401002070B5044658B31B4D2868844230
:1043400031D0FFF79FFE2046FFF738FDE8B1201D72
:10435000FFF753FEE16A0120AA6988401043A86173
:1043600001EB8100114901EB8000211DFFF77EFE6A
:104370002868E16AC06A814207D30D494FF0805036
:104380000860BFF34F8FBFF36F8FBDE87040FFF73A
:104390009DBE502072B680F31188BFF34F8FBFF3DC
:1043A0006F8F62B6FEE770BD48000020F401002068
:1043B00004ED00E0174818A11CB500248022234614
:1043C000CDE90040164800F077FB01280BD0401CD7
:1043D0001ED1502072B680F31188BFF34F8FBFF308
:1043E0006F8F62B6FEE7502072B680F31188BFF37C
:1043F0004F8FBFF36F8F62B606484FF0FF323438ED
:1044000001210263C1614461BDE81C4000F0A2B813
:104410001CBD00007C00002049444C450000000009
:10442000113C000870B50446FFF72CFE2A4D04B974
:104430002C68201DFFF7E1FD58B9E06A274A00EB20
:10444000800152F8211021B9AA69012181408A43D3
:10445000AA61A06A18B104F11800FFF7CEFD1F4849
:10446000211DDC30FFF702FE94F8500000260128E1
:1044700001D184F85060FFF729FEE86928B1FFF701
:1044800001FEFFF773FCFFF721FE2868844215D177
:10449000E869A0B1A86B48B1502072B680F31188CA
:1044A000BFF34F8FBFF36F8F62B6FEE70C494FF03B
:1044B00080500860BFF34F8FBFF36F8F70BD074808
:1044C000DC3000682969884201D12E6070BDBDE8EA
:1044D000704000F00FB8000048000020F4010020F8
:1044E00004ED00E00248816B491C816370470000C5
:1044F000480000201548816B11B1012141627047CD
:104500000021416212498269B2FA82F2C2F11F02AD
:1045100002EB820251F822306BB101EB820101F112
:1045200008034A6852684A609A4201D152684A6058
:10453000D16801607047502072B680F31188BFF3D4
:104540004F8FBFF36F8F62B6FEE700004800002078
:10455000F40100202B49FF201CB50A780192087055
:1045600008788DF800009DF800209DF8000002F00A
:10457000F002824209D0502072B680F31188BFF356
:104580004F8FBFF36F8F62B6FEE79DF800200720C4
:104590001D4C02F050022270A06005E09DF8002042
:1045A00052008DF80020401E9DF800201206F5D420
:1045B0000328A06009D0502072B680F31188BFF3A1
:1045C0004F8FBFF36F8F62B6FEE74FF44070A0606D
:1045D000019808700D48016841F47001016001689C
:1045E00041F070410160FFF7B9FD00206060FBF70A
:1045F00031FE0748016841F040410160FBF716FEBB
:1046000000201CBD00E400E09C00002020ED00E044
:1046100034EF00E010B50C4658B1844213D9502055
:1046200072B680F31188BFF34F8FBFF36F8F62B6FE
:10463000FEE7502072B680F31188BFF34F8FBFF3AF
:104640006F8F62B6FEE70222002100F004F8002816
:1046500000D0846310BD70B505000E4613D0E6B1DE
:1046600005FB06F04830FFF7FDFB040009D004F11C
:10467000480120469EB101600121C0E90F5600F0BB
:1046800011F8204670BD502072B680F31188BFF338
:104690004F8FBFF36F8F62B6FEE70020E2E7006046
:1046A000EAE700002DE9F04704008A4629D0FFF729
:1046B000E9FC21680025D4E90F23D4F840C004F1B7
:1046C000100810460E46401E4FF0FF3902FB031241
:1046D00000FB0C10BAF1000FA563A66084F84490AB
:1046E00084F845906260E06015D04046FFF798FC82
:1046F00004F12400FFF794FCFFF7E8FC0120BDE87B
:10470000F087502072B680F31188BFF34F8FBFF34C
:104710006F8F62B6FEE720690028EDD0404600F0BA
:104720000BFB0028E8D004494FF080500860BFF32D
:104730004F8FBFF36F8FDFE704ED00E02DE9FF47F8
:1047400004001D4682B08A464FF0000803D0BAF13B
:10475000000F0AD015E0502072B680F31188BFF325
:104760004F8FBFF36F8F62B6FEE7206C48B15020C9
:1047700072B680F31188BFF34F8FBFF36F8F62B6AD
:10478000FEE7022D0CD1E06B012809D0502072B653
:1047900080F31188BFF34F8FBFF36F8F62B6FEE7D0
:1047A00000F0B6F9404F4FF080564FF0000958B96D
:1047B000049848B1502072B680F31188BFF34F8F30
:1047C000BFF36F8F62B6FEE7FFF75CFCA06BE16B97
:1047D000884207D3022D05D00498D0B1B8F1000F5C
:1047E0001AD01EE02A4651462046FFF7A9F9616A11
:1047F00019B104F1240000F09FFA20B13E60BFF32C
:104800004F8FBFF36F8FFFF761FC012006B0BDE84B
:10481000F087FFF75BFC22E06846FFF707FD4FF0EB
:104820000108FFF753FCFFF75DFEFFF72BFC94F93F
:104830004400401C01D184F8449094F94500401C88
:1048400001D184F84590FFF741FC04A9684600F0C7
:10485000F3F830B12046FFF7CFFA00F0A9FA0020B4
:10486000D4E7FFF70FFCA06BE16B884213D1FFF791
:104870002DFC049904F11000FFF7E6FC2046FFF739
:10488000BBFA00F095FA00289ED13E60BFF34F8F2F
:10489000BFF36F8F98E7FFF719FC2046FFF7ACFADC
:1048A00000F086FA90E7000004ED00E02DE9F34304
:1048B0004FF000060400354683B00BD0206C98B151
:1048C000502072B680F31188BFF34F8FBFF36F8F04
:1048D00062B6FEE7502072B680F31188BFF34F8FA7
:1048E000BFF36F8F62B6FEE700F012F9DFF8448184
:1048F0004FF080574FF0000958B9049848B1502044
:1049000072B680F31188BFF34F8FBFF36F8F62B61B
:10491000FEE7FFF7B7FBA06BC8B12168401EA0639C
:1049200011B9FFF711FB6060206950B104F110006C
:1049300000F002FA28B1C8F80070BFF34F8FBFF340
:104940006F8FFFF7C3FB012005B0BDE8F08304982B
:1049500008B176B111E04DB1502072B680F31188E4
:10496000BFF34F8FBFF36F8F62B6FEE7FFF7AEFB6B
:104970005EE06846FFF75AFC0126FFF7A7FBFFF74A
:10498000B1FDFFF77FFB94F94400401C01D184F88E
:10499000449094F94500401C01D184F84590FFF7FC
:1049A00095FB04A9684600F047F80028204612D07D
:1049B000FFF722FA00F0FCF92046FFF7C9F90028BA
:1049C000A7D075B3FFF75EFB606A58B3206B006831
:1049D000C0F1070128E0FFF7BBF9E0B1206838B962
:1049E000FFF750FB606800F05BF90546FFF76EFBD0
:1049F000049904F12400FFF727FC2046FFF7FCF997
:104A000000F0D6F9002884D1C8F80070BFF34F8FAA
:104A1000BFF36F8F7DE72046FFF7EEF900F0C8F98E
:104A200077E705E0FFE700216068FFF727FC9DE7D7
:104A3000002089E704ED00E02DE9F04105000C4677
:104A400012D0DCB1FFF71EFB1A4E20687269471CBA
:104A50006B68A2EB03011BD02F68B66AB74219D06E
:104A6000934217D8012520E0502072B680F31188B8
:104A7000BFF34F8FBFF36F8F62B6FEE7502072B661
:104A800080F31188BFF34F8FBFF36F8F62B6FEE7DD
:104A900000250AE0884205D9401A20602846FFF721
:104AA000C5FBF5E7002020600125FFF70FFB284636
:104AB000BDE8F081480000202DE9FF5F99461646C9
:104AC0008A4683469000DDE90E87FFF7CBF90500A3
:104AD0001AD05420FFF7C6F9040012D00021256334
:104AE000CDE900874B463246CDE902415146584652
:104AF000FFF7BEF82046FEF7BBFF012004B0BDE87B
:104B0000F09F2846FFF7F8FA4FF0FF30F6E7000075
:104B10000548C16919B1806B18B1002070470120A8
:104B20007047022070470000480000202DE9F04146
:104B30002F4CA06B002740B1206A401C2062606AA5
:104B400000B101273846BDE8F0816669761C6661D0
:104B500015D16068006848B1502072B680F31188A2
:104B6000BFF34F8FBFF36F8F62B6FEE76068A16837
:104B70006160A060A06A401CA062FFF7F7F8DFF850
:104B80007480206B864209D36068006880B16068D9
:104B9000C068C568686886420DD220632068C06A14
:104BA00000EB800158F821000128C8D90127C6E789
:104BB0004FF0FF30F1E7281DFFF71FFAA86A18B180
:104BC00005F11800FFF719FAE86A0121A26981408E
:104BD0001143A16100EB800108EB8100291DFFF763
:104BE00045FA2068E96AC06A8142CDD30127CBE744
:104BF00048000020F401002070B504464FF0000189
:104C0000F0B3254D2868844209D0502072B680F355
:104C10001188BFF34F8FBFF36F8F62B6FEE7A06CB2
:104C200038B1636C401EE26AA0649A4231D050B140
:104C30002FE0502072B680F31188BFF34F8FBFF37F
:104C40006F8F62B6FEE7201DFFF7D7F913490028E2
:104C50004FF001000AD1E26A02EB820351F82330DF
:104C600023B9AB6900FA02F29343AB61626CC2F103
:104C70000703A361E262AB6990401843A86100E0BA
:104C800007E002EB820001EB8000211DFFF7EEF947
:104C90000121084670BD000048000020F4010020FA
:104CA00070B5002804464FF000003AD0204DE16A6C
:104CB0002A68D26A914235D2A069002804DB2868AC
:104CC000C06AC0F10700A0611A4E01EB8101606962
:104CD00006EB8101884220D1201DFFF78EF90028C4
:104CE0004FF001000AD1E16A01EB810256F822205F
:104CF00022B9AA6900FA01F18A43AA612968C96A3E
:104D0000E162AA6988401043A86101EB8100211D7E
:104D100006EB8000FFF7AAF902E02868C06AE062AB
:104D2000012070BD2968626CC96A8A42F8D370BDDF
:104D300048000020F40100202DE9F041C068C4685B
:104D4000ACB104F118000746FFF757F9164D0126DC
:104D5000A86BB0B115483946FFF788F9E06A2968B1
:104D6000C96A88421ED901206E62BDE8F0815020D8
:104D700072B680F31188BFF34F8FBFF36F8F62B6A7
:104D8000FEE7201DFFF739F9E06AAA6906FA00F18B
:104D90001143A961054900EB8000B43901EB8000A3
:104DA000211DD9E70020E0E748000020A8020020EC
:104DB0002DE9F0472D4DA86B0024264638B1FFF7AA
:104DC00061F9A86B401EA863A86B50B149E0502060
:104DD00072B680F31188BFF34F8FBFF36F8F62B647
:104DE000FEE7234F01202969D9B3A7F1B409804612
:104DF0003868E8B1F868C46804F11800FFF7FDF8F6
:104E0000201DFFF7FAF8E16AAA6908FA01F01043D9
:104E1000A86101EB810109EB8100211DFFF726F953
:104E20002968E06AC96A8842E2D3C5F82480DFE7CE
:104E30000CB1FEF79BFF2C6A44B14746FFF776FEA4
:104E400000B16F62641EF9D100202862686A40B127
:104E5000084901264FF080500860BFF34F8FBFF321
:104E60006F8FFFF733F93046BDE8F0874800002028
:104E7000A802002004ED00E02DE9F04104464FF0C7
:104E80000007B8B1FFF77CF95020EFF3118572B637
:104E900080F31188BFF34F8FBFF36F8F62B6204648
:104EA000FEF78CFF40B3174EB06B68B1164804F1A3
:104EB00018011FE0502072B680F31188BFF34F8FA6
:104EC000BFF36F8F62B6FEE7E06A3168C96A884255
:104ED00000D30127201DFFF790F8E06A0121B26995
:104EE00081401143B161084900EB8000B43901EB06
:104EF0008000211DFFF7BAF885F311883846BDE818
:104F0000F081000048000020A802002000000000FE
:104F10000000000001020304060708090000000069
:104F20000102030400000000000000000000F03F48
:104F3000000000000000F83F00000000000000003A
:104F40000000004003B8E23F000000000000000045
:104F500006D0CF43EBFD4C3E033333333333E33FD3
:104F6000FFAB6FDBB66DDB3F4D268F515555D53FFF
:104F700001411DA96074D13F65DBC9934A86CD3FCD
:104F8000EF4E454A287ECA3F3E5555555555C53FBB
:104F900093BDBE166CC166BF2CDE25AF6A56113FAD
:104FA000F16BD2C541BDBBBED0A4BE726937663EAF
:104FB0000000000000000000D84F000800000020A2
:104FC000AC0000009836000884500008AC000020B7
:104FD0003C420000A836000800000000000000006D
:104FE00000000000000000000000000000000000C1
:104FF00000000000000000000000000000000000B1
:1050000000000000000000000000000000000000A0
:105010000100000010000000000000000024F40067
:105020000000000000000000000000000000000080
:105030000000000000000000000000000000000070
:105040000000000000000000000000000000000060
:105050000000000000000000000000000000000050
:105060000000000000000000000000000000000040
:105070000000000000000000AAAAAAAA0000000088
:04508000000000002C
:04000005080001F9F5
:00000001FF
